{
  "_format": "hh-sol-artifact-1",
  "contractName": "ERC20ForSplFactory",
  "sourceName": "contracts/ERC20ForSplFactory.sol",
  "abi": [
    {
      "anonymous": false,
      "inputs": [
        {
          "indexed": false,
          "internalType": "bytes32",
          "name": "_mint",
          "type": "bytes32"
        },
        {
          "indexed": false,
          "internalType": "address",
          "name": "pair",
          "type": "address"
        },
        {
          "indexed": false,
          "internalType": "uint256",
          "name": "",
          "type": "uint256"
        }
      ],
      "name": "ERC20ForSplCreated",
      "type": "event"
    },
    {
      "inputs": [
        {
          "internalType": "uint256",
          "name": "",
          "type": "uint256"
        }
      ],
      "name": "allErc20ForSpl",
      "outputs": [
        {
          "internalType": "address",
          "name": "",
          "type": "address"
        }
      ],
      "stateMutability": "view",
      "type": "function"
    },
    {
      "inputs": [],
      "name": "allErc20ForSplLength",
      "outputs": [
        {
          "internalType": "uint256",
          "name": "",
          "type": "uint256"
        }
      ],
      "stateMutability": "view",
      "type": "function"
    },
    {
      "inputs": [
        {
          "internalType": "bytes32",
          "name": "_mint",
          "type": "bytes32"
        }
      ],
      "name": "createErc20ForSpl",
      "outputs": [
        {
          "internalType": "address",
          "name": "erc20spl",
          "type": "address"
        }
      ],
      "stateMutability": "nonpayable",
      "type": "function"
    },
    {
      "inputs": [
        {
          "internalType": "string",
          "name": "_name",
          "type": "string"
        },
        {
          "internalType": "string",
          "name": "_symbol",
          "type": "string"
        },
        {
          "internalType": "uint8",
          "name": "_decimals",
          "type": "uint8"
        },
        {
          "internalType": "address",
          "name": "_mint_authority",
          "type": "address"
        }
      ],
      "name": "createErc20ForSplMintable",
      "outputs": [
        {
          "internalType": "address",
          "name": "erc20spl",
          "type": "address"
        }
      ],
      "stateMutability": "nonpayable",
      "type": "function"
    },
    {
      "inputs": [
        {
          "internalType": "bytes32",
          "name": "",
          "type": "bytes32"
        }
      ],
      "name": "getErc20ForSpl",
      "outputs": [
        {
          "internalType": "address",
          "name": "",
          "type": "address"
        }
      ],
      "stateMutability": "view",
      "type": "function"
    }
  ],
  "bytecode": "0x6080604052348015600f57600080fd5b506176988061001f6000396000f3fe608060405234801561001057600080fd5b50600436106100575760003560e01c8063310723a71461005c5780635b9330451461007a578063828c89ce146100aa57806394a20de9146100da578063fce4bd2c1461010a575b600080fd5b61006461013a565b6040516100719190610727565b60405180910390f35b610094600480360381019061008f919061078c565b610147565b6040516100a191906107fa565b60405180910390f35b6100c460048036038101906100bf919061078c565b61017a565b6040516100d191906107fa565b60405180910390f35b6100f460048036038101906100ef9190610841565b610428565b60405161010191906107fa565b60405180910390f35b610124600480360381019061011f9190610a19565b610467565b60405161013191906107fa565b60405180910390f35b6000600180549050905090565b60006020528060005260406000206000915054906101000a900473ffffffffffffffffffffffffffffffffffffffff1681565b60008073ffffffffffffffffffffffffffffffffffffffff1660008084815260200190815260200160002060009054906101000a900473ffffffffffffffffffffffffffffffffffffffff1673ffffffffffffffffffffffffffffffffffffffff161461021c576040517f08c379a000000000000000000000000000000000000000000000000000000000815260040161021390610b3b565b60405180910390fd5b60006040518060200161022e906106f4565b6020820181038252601f19601f82011660405250905080836040516020016102569190610b6a565b604051602081830303815290604052604051602001610276929190610bf6565b604051602081830303815290604052905060008360405160200161029a9190610c3b565b604051602081830303815290604052805190602001209050808251602084016000f59250600073ffffffffffffffffffffffffffffffffffffffff168373ffffffffffffffffffffffffffffffffffffffff160361032d576040517f08c379a000000000000000000000000000000000000000000000000000000000815260040161032490610cc8565b60405180910390fd5b8260008086815260200190815260200160002060006101000a81548173ffffffffffffffffffffffffffffffffffffffff021916908373ffffffffffffffffffffffffffffffffffffffff1602179055506001839080600181540180825580915050600190039060005260206000200160009091909190916101000a81548173ffffffffffffffffffffffffffffffffffffffff021916908373ffffffffffffffffffffffffffffffffffffffff1602179055507f22e44ec9f371f579e9b6bff522d8d98f698bcbf6aeed37add7c3e6cf128f3e68848460018054905060405161041993929190610ce8565b60405180910390a15050919050565b6001818154811061043857600080fd5b906000526020600020016000915054906101000a900473ffffffffffffffffffffffffffffffffffffffff1681565b6000806040518060200161047a90610701565b6020820181038252601f19601f82011660405250905080868686866040516020016104a89493929190610d72565b6040516020818303038152906040526040516020016104c8929190610bf6565b604051602081830303815290604052905060008060001b6040516020016104ef9190610c3b565b604051602081830303815290604052805190602001209050808251602084016000f59250600073ffffffffffffffffffffffffffffffffffffffff168373ffffffffffffffffffffffffffffffffffffffff1603610582576040517f08c379a000000000000000000000000000000000000000000000000000000000815260040161057990610e37565b60405180910390fd5b60008373ffffffffffffffffffffffffffffffffffffffff1663568273736040518163ffffffff1660e01b8152600401602060405180830381865afa1580156105cf573d6000803e3d6000fd5b505050506040513d601f19601f820116820180604052508101906105f39190610e6c565b90508360008083815260200190815260200160002060006101000a81548173ffffffffffffffffffffffffffffffffffffffff021916908373ffffffffffffffffffffffffffffffffffffffff1602179055506001849080600181540180825580915050600190039060005260206000200160009091909190916101000a81548173ffffffffffffffffffffffffffffffffffffffff021916908373ffffffffffffffffffffffffffffffffffffffff1602179055507f22e44ec9f371f579e9b6bff522d8d98f698bcbf6aeed37add7c3e6cf128f3e6881856001805490506040516106e193929190610ce8565b60405180910390a1505050949350505050565b612e0680610e9a83390190565b6139c380613ca083390190565b6000819050919050565b6107218161070e565b82525050565b600060208201905061073c6000830184610718565b92915050565b6000604051905090565b600080fd5b600080fd5b6000819050919050565b61076981610756565b811461077457600080fd5b50565b60008135905061078681610760565b92915050565b6000602082840312156107a2576107a161074c565b5b60006107b084828501610777565b91505092915050565b600073ffffffffffffffffffffffffffffffffffffffff82169050919050565b60006107e4826107b9565b9050919050565b6107f4816107d9565b82525050565b600060208201905061080f60008301846107eb565b92915050565b61081e8161070e565b811461082957600080fd5b50565b60008135905061083b81610815565b92915050565b6000602082840312156108575761085661074c565b5b60006108658482850161082c565b91505092915050565b600080fd5b600080fd5b6000601f19601f8301169050919050565b7f4e487b7100000000000000000000000000000000000000000000000000000000600052604160045260246000fd5b6108c182610878565b810181811067ffffffffffffffff821117156108e0576108df610889565b5b80604052505050565b60006108f3610742565b90506108ff82826108b8565b919050565b600067ffffffffffffffff82111561091f5761091e610889565b5b61092882610878565b9050602081019050919050565b82818337600083830152505050565b600061095761095284610904565b6108e9565b90508281526020810184848401111561097357610972610873565b5b61097e848285610935565b509392505050565b600082601f83011261099b5761099a61086e565b5b81356109ab848260208601610944565b91505092915050565b600060ff82169050919050565b6109ca816109b4565b81146109d557600080fd5b50565b6000813590506109e7816109c1565b92915050565b6109f6816107d9565b8114610a0157600080fd5b50565b600081359050610a13816109ed565b92915050565b60008060008060808587031215610a3357610a3261074c565b5b600085013567ffffffffffffffff811115610a5157610a50610751565b5b610a5d87828801610986565b945050602085013567ffffffffffffffff811115610a7e57610a7d610751565b5b610a8a87828801610986565b9350506040610a9b878288016109d8565b9250506060610aac87828801610a04565b91505092959194509250565b600082825260208201905092915050565b7f45524332302053504c20466163746f72793a2045524332305f53504c5f45584960008201527f5354530000000000000000000000000000000000000000000000000000000000602082015250565b6000610b25602383610ab8565b9150610b3082610ac9565b604082019050919050565b60006020820190508181036000830152610b5481610b18565b9050919050565b610b6481610756565b82525050565b6000602082019050610b7f6000830184610b5b565b92915050565b600081519050919050565b600081905092915050565b60005b83811015610bb9578082015181840152602081019050610b9e565b60008484015250505050565b6000610bd082610b85565b610bda8185610b90565b9350610bea818560208601610b9b565b80840191505092915050565b6000610c028285610bc5565b9150610c0e8284610bc5565b91508190509392505050565b6000819050919050565b610c35610c3082610756565b610c1a565b82525050565b6000610c478284610c24565b60208201915081905092915050565b7f45524332302053504c20466163746f72793a2053504c20544f4b454e2049532060008201527f4e4f542043524541544544000000000000000000000000000000000000000000602082015250565b6000610cb2602b83610ab8565b9150610cbd82610c56565b604082019050919050565b60006020820190508181036000830152610ce181610ca5565b9050919050565b6000606082019050610cfd6000830186610b5b565b610d0a60208301856107eb565b610d176040830184610718565b949350505050565b600081519050919050565b6000610d3582610d1f565b610d3f8185610ab8565b9350610d4f818560208601610b9b565b610d5881610878565b840191505092915050565b610d6c816109b4565b82525050565b60006080820190508181036000830152610d8c8187610d2a565b90508181036020830152610da08186610d2a565b9050610daf6040830185610d63565b610dbc60608301846107eb565b95945050505050565b7f45524332302053504c20466163746f72793a2053504c20544f4b454e204d494e60008201527f5441424c45204953204e4f542043524541544544000000000000000000000000602082015250565b6000610e21603483610ab8565b9150610e2c82610dc5565b604082019050919050565b60006020820190508181036000830152610e5081610e14565b9050919050565b600081519050610e6681610760565b92915050565b600060208284031215610e8257610e8161074c565b5b6000610e9084828501610e57565b9150509291505056fe60a060405234801561001057600080fd5b50604051612e06380380612e0683398181016040528101906100329190610223565b73ff0000000000000000000000000000000000000473ffffffffffffffffffffffffffffffffffffffff1663a2ce9c1f826040518263ffffffff1660e01b815260040161007f919061025f565b60a060405180830381865afa15801561009c573d6000803e3d6000fd5b505050506040513d601f19601f820116820180604052508101906100c09190610448565b60400151610103576040517f08c379a00000000000000000000000000000000000000000000000000000000081526004016100fa906104d2565b60405180910390fd5b73ff0000000000000000000000000000000000000573ffffffffffffffffffffffffffffffffffffffff1663f7b637bb826040518263ffffffff1660e01b8152600401610150919061025f565b602060405180830381865afa15801561016d573d6000803e3d6000fd5b505050506040513d601f19601f8201168201806040525081019061019191906104f2565b6101d0576040517f08c379a00000000000000000000000000000000000000000000000000000000081526004016101c79061056b565b60405180910390fd5b80608081815250505061058b565b6000604051905090565b600080fd5b6000819050919050565b610200816101ed565b811461020b57600080fd5b50565b60008151905061021d816101f7565b92915050565b600060208284031215610239576102386101e8565b5b60006102478482850161020e565b91505092915050565b610259816101ed565b82525050565b60006020820190506102746000830184610250565b92915050565b600080fd5b6000601f19601f8301169050919050565b7f4e487b7100000000000000000000000000000000000000000000000000000000600052604160045260246000fd5b6102c88261027f565b810181811067ffffffffffffffff821117156102e7576102e6610290565b5b80604052505050565b60006102fa6101de565b905061030682826102bf565b919050565b600067ffffffffffffffff82169050919050565b6103288161030b565b811461033357600080fd5b50565b6000815190506103458161031f565b92915050565b600060ff82169050919050565b6103618161034b565b811461036c57600080fd5b50565b60008151905061037e81610358565b92915050565b60008115159050919050565b61039981610384565b81146103a457600080fd5b50565b6000815190506103b681610390565b92915050565b600060a082840312156103d2576103d161027a565b5b6103dc60a06102f0565b905060006103ec84828501610336565b60008301525060206104008482850161036f565b6020830152506040610414848285016103a7565b60408301525060606104288482850161020e565b606083015250608061043c8482850161020e565b60808301525092915050565b600060a0828403121561045e5761045d6101e8565b5b600061046c848285016103bc565b91505092915050565b600082825260208201905092915050565b7f45524332303a20696e76616c696420746f6b656e206d696e7400000000000000600082015250565b60006104bc601983610475565b91506104c782610486565b602082019050919050565b600060208201905081810360008301526104eb816104af565b9050919050565b600060208284031215610508576105076101e8565b5b6000610516848285016103a7565b91505092915050565b7f45524332303a206d697373696e67204d657461506c6578206d65746164617461600082015250565b6000610555602083610475565b91506105608261051f565b602082019050919050565b6000602082019050818103600083015261058481610548565b9050919050565b60805161282f6105d7600039600081816103df015281816104b5015281816105a00152818161073001528181610bab01528181610c4f0152818161139c01526116e5015261282f6000f3fe608060405234801561001057600080fd5b50600436106101005760003560e01c806370a0823111610097578063a9059cbb11610066578063a9059cbb146102fd578063af25c0771461032d578063af554c5b1461034b578063dd62ed3e1461037b57610100565b806370a082311461024f57806379cc67901461027f57806393e29346146102af57806395d89b41146102df57610100565b8063313ce567116100d3578063313ce567146101a157806342966c68146101bf5780635ca3e1e9146101ef57806367d1c2181461021f57610100565b806306fdde0314610105578063095ea7b31461012357806318160ddd1461015357806323b872dd14610171575b600080fd5b61010d6103ab565b60405161011a9190611913565b60405180910390f35b61013d600480360381019061013891906119dd565b610465565b60405161014a9190611a38565b60405180910390f35b61015b610481565b6040516101689190611a62565b60405180910390f35b61018b60048036038101906101869190611a7d565b610544565b6040516101989190611a38565b60405180910390f35b6101a961056c565b6040516101b69190611aec565b60405180910390f35b6101d960048036038101906101d49190611b07565b610625565b6040516101e69190611a38565b60405180910390f35b61020960048036038101906102049190611baa565b61063f565b6040516102169190611a38565b60405180910390f35b61023960048036038101906102349190611bea565b610654565b6040516102469190611a38565b60405180910390f35b61026960048036038101906102649190611c3d565b6108b0565b6040516102769190611a62565b60405180910390f35b610299600480360381019061029491906119dd565b610962565b6040516102a69190611a38565b60405180910390f35b6102c960048036038101906102c49190611baa565b610988565b6040516102d69190611a38565b60405180910390f35b6102e7610b77565b6040516102f49190611913565b60405180910390f35b610317600480360381019061031291906119dd565b610c31565b6040516103249190611a38565b60405180910390f35b610335610c4d565b6040516103429190611c79565b60405180910390f35b61036560048036038101906103609190611baa565b610c71565b6040516103729190611a38565b60405180910390f35b61039560048036038101906103909190611c94565b610dc8565b6040516103a29190611a62565b60405180910390f35b606073ff0000000000000000000000000000000000000573ffffffffffffffffffffffffffffffffffffffff1663691f34317f00000000000000000000000000000000000000000000000000000000000000006040518263ffffffff1660e01b815260040161041a9190611c79565b600060405180830381865afa158015610437573d6000803e3d6000fd5b505050506040513d6000823e3d601f19601f820116820180604052508101906104609190611dfa565b905090565b600080339050610476818585610e4e565b600191505092915050565b600073ff0000000000000000000000000000000000000473ffffffffffffffffffffffffffffffffffffffff1663a2ce9c1f7f00000000000000000000000000000000000000000000000000000000000000006040518263ffffffff1660e01b81526004016104f09190611c79565b60a060405180830381865afa15801561050d573d6000803e3d6000fd5b505050506040513d601f19601f820116820180604052508101906105319190611f56565b6000015167ffffffffffffffff16905090565b600080339050610555858285611016565b6105608585856110ab565b60019150509392505050565b600073ff0000000000000000000000000000000000000473ffffffffffffffffffffffffffffffffffffffff1663a2ce9c1f7f00000000000000000000000000000000000000000000000000000000000000006040518263ffffffff1660e01b81526004016105db9190611c79565b60a060405180830381865afa1580156105f8573d6000803e3d6000fd5b505050506040513d601f19601f8201168201806040525081019061061c9190611f56565b60200151905090565b600080339050610635818461150c565b6001915050919050565b600061064c833384610654565b905092915050565b600080610660846117c1565b905073ff0000000000000000000000000000000000000473ffffffffffffffffffffffffffffffffffffffff16636da9de75826040518263ffffffff1660e01b81526004016106af9190611c79565b602060405180830381865afa1580156106cc573d6000803e3d6000fd5b505050506040513d601f19601f820116820180604052508101906106f09190611f83565b156107b15773ff0000000000000000000000000000000000000473ffffffffffffffffffffffffffffffffffffffff1663daa12c5c61072e86611860565b7f00000000000000000000000000000000000000000000000000000000000000006040518363ffffffff1660e01b815260040161076c929190611fb0565b6020604051808303816000875af115801561078b573d6000803e3d6000fd5b505050506040513d601f19601f820116820180604052508101906107af9190611fd9565b505b73ff0000000000000000000000000000000000000473ffffffffffffffffffffffffffffffffffffffff16637c0eb8106107ea33611860565b8784876040518563ffffffff1660e01b815260040161080c9493929190612015565b600060405180830381600087803b15801561082657600080fd5b505af115801561083a573d6000803e3d6000fd5b505050508373ffffffffffffffffffffffffffffffffffffffff16600073ffffffffffffffffffffffffffffffffffffffff167fddf252ad1be2c89b69c2b068fc378daa952ba7f163c4a11628f55a4df523b3ef8560405161089c9190612095565b60405180910390a360019150509392505050565b6000806108bc836117c1565b905073ff0000000000000000000000000000000000000473ffffffffffffffffffffffffffffffffffffffff1663d1de5011826040518263ffffffff1660e01b815260040161090b9190611c79565b60e060405180830381865afa158015610928573d6000803e3d6000fd5b505050506040513d601f19601f8201168201806040525081019061094c9190612189565b6040015167ffffffffffffffff16915050919050565b600080339050610973848285611016565b61097d848461150c565b600191505092915050565b6000803390506000610999826117c1565b905060008467ffffffffffffffff161115610a365773ff0000000000000000000000000000000000000473ffffffffffffffffffffffffffffffffffffffff1663a9c158068287876040518463ffffffff1660e01b81526004016109ff939291906121b6565b600060405180830381600087803b158015610a1957600080fd5b505af1158015610a2d573d6000803e3d6000fd5b50505050610ab6565b73ff0000000000000000000000000000000000000473ffffffffffffffffffffffffffffffffffffffff1663b75c7dc6826040518263ffffffff1660e01b8152600401610a839190611c79565b600060405180830381600087803b158015610a9d57600080fd5b505af1158015610ab1573d6000803e3d6000fd5b505050505b600073ffffffffffffffffffffffffffffffffffffffff168273ffffffffffffffffffffffffffffffffffffffff167f8c5be1e5ebec7d5bd14f71427d1e84f3dd0314c0f7b2291e5b200ac8c7c3b92586604051610b149190612095565b60405180910390a3848273ffffffffffffffffffffffffffffffffffffffff167ff2d0a01e4c49f3439199c8f8950e366e85c4d1bd845552f6da1009b3bb2c1a7086604051610b6391906121ed565b60405180910390a360019250505092915050565b606073ff0000000000000000000000000000000000000573ffffffffffffffffffffffffffffffffffffffff16636baa03307f00000000000000000000000000000000000000000000000000000000000000006040518263ffffffff1660e01b8152600401610be69190611c79565b600060405180830381865afa158015610c03573d6000803e3d6000fd5b505050506040513d6000823e3d601f19601f82011682018060405250810190610c2c9190611dfa565b905090565b600080339050610c428185856110ab565b600191505092915050565b7f000000000000000000000000000000000000000000000000000000000000000081565b6000803390506000610c82826117c1565b905073ff0000000000000000000000000000000000000473ffffffffffffffffffffffffffffffffffffffff166378423bcf8287876040518463ffffffff1660e01b8152600401610cd5939291906121b6565b600060405180830381600087803b158015610cef57600080fd5b505af1158015610d03573d6000803e3d6000fd5b50505050600073ffffffffffffffffffffffffffffffffffffffff168273ffffffffffffffffffffffffffffffffffffffff167fddf252ad1be2c89b69c2b068fc378daa952ba7f163c4a11628f55a4df523b3ef86604051610d659190612095565b60405180910390a3848273ffffffffffffffffffffffffffffffffffffffff167fe583d1a637e8abf51f188046ea719a60e5fa9d1b525c90e85666f5f459b3f14986604051610db491906121ed565b60405180910390a360019250505092915050565b60008060008473ffffffffffffffffffffffffffffffffffffffff1673ffffffffffffffffffffffffffffffffffffffff16815260200190815260200160002060008373ffffffffffffffffffffffffffffffffffffffff1673ffffffffffffffffffffffffffffffffffffffff16815260200190815260200160002054905092915050565b600073ffffffffffffffffffffffffffffffffffffffff168373ffffffffffffffffffffffffffffffffffffffff1603610ebd576040517f08c379a0000000000000000000000000000000000000000000000000000000008152600401610eb49061227a565b60405180910390fd5b600073ffffffffffffffffffffffffffffffffffffffff168273ffffffffffffffffffffffffffffffffffffffff1603610f2c576040517f08c379a0000000000000000000000000000000000000000000000000000000008152600401610f239061230c565b60405180910390fd5b806000808573ffffffffffffffffffffffffffffffffffffffff1673ffffffffffffffffffffffffffffffffffffffff16815260200190815260200160002060008473ffffffffffffffffffffffffffffffffffffffff1673ffffffffffffffffffffffffffffffffffffffff168152602001908152602001600020819055508173ffffffffffffffffffffffffffffffffffffffff168373ffffffffffffffffffffffffffffffffffffffff167f8c5be1e5ebec7d5bd14f71427d1e84f3dd0314c0f7b2291e5b200ac8c7c3b925836040516110099190611a62565b60405180910390a3505050565b60006110228484610dc8565b90507fffffffffffffffffffffffffffffffffffffffffffffffffffffffffffffffff81146110a5578181101561108e576040517f08c379a000000000000000000000000000000000000000000000000000000000815260040161108590612378565b60405180910390fd5b6110a48484848461109f91906123c7565b610e4e565b5b50505050565b600073ffffffffffffffffffffffffffffffffffffffff168373ffffffffffffffffffffffffffffffffffffffff160361111a576040517f08c379a00000000000000000000000000000000000000000000000000000000081526004016111119061246d565b60405180910390fd5b600073ffffffffffffffffffffffffffffffffffffffff168273ffffffffffffffffffffffffffffffffffffffff1603611189576040517f08c379a0000000000000000000000000000000000000000000000000000000008152600401611180906124ff565b60405180910390fd5b6000611194846117c1565b905060006111a1846117c1565b905067ffffffffffffffff80168311156111f0576040517f08c379a00000000000000000000000000000000000000000000000000000000081526004016111e790612591565b60405180910390fd5b8273ff0000000000000000000000000000000000000473ffffffffffffffffffffffffffffffffffffffff1663d1de5011846040518263ffffffff1660e01b815260040161123e9190611c79565b60e060405180830381865afa15801561125b573d6000803e3d6000fd5b505050506040513d601f19601f8201168201806040525081019061127f9190612189565b6040015167ffffffffffffffff1610156112ce576040517f08c379a00000000000000000000000000000000000000000000000000000000081526004016112c590612623565b60405180910390fd5b73ff0000000000000000000000000000000000000473ffffffffffffffffffffffffffffffffffffffff16636da9de75826040518263ffffffff1660e01b815260040161131b9190611c79565b602060405180830381865afa158015611338573d6000803e3d6000fd5b505050506040513d601f19601f8201168201806040525081019061135c9190611f83565b1561141d5773ff0000000000000000000000000000000000000473ffffffffffffffffffffffffffffffffffffffff1663daa12c5c61139a86611860565b7f00000000000000000000000000000000000000000000000000000000000000006040518363ffffffff1660e01b81526004016113d8929190611fb0565b6020604051808303816000875af11580156113f7573d6000803e3d6000fd5b505050506040513d601f19601f8201168201806040525081019061141b9190611fd9565b505b73ff0000000000000000000000000000000000000473ffffffffffffffffffffffffffffffffffffffff166378423bcf8383866040518463ffffffff1660e01b815260040161146e939291906121b6565b600060405180830381600087803b15801561148857600080fd5b505af115801561149c573d6000803e3d6000fd5b505050508373ffffffffffffffffffffffffffffffffffffffff168573ffffffffffffffffffffffffffffffffffffffff167fddf252ad1be2c89b69c2b068fc378daa952ba7f163c4a11628f55a4df523b3ef856040516114fd9190611a62565b60405180910390a35050505050565b600073ffffffffffffffffffffffffffffffffffffffff168273ffffffffffffffffffffffffffffffffffffffff160361157b576040517f08c379a0000000000000000000000000000000000000000000000000000000008152600401611572906126b5565b60405180910390fd5b67ffffffffffffffff80168111156115c8576040517f08c379a00000000000000000000000000000000000000000000000000000000081526004016115bf90612747565b60405180910390fd5b60006115d3836117c1565b90508173ff0000000000000000000000000000000000000473ffffffffffffffffffffffffffffffffffffffff1663d1de5011836040518263ffffffff1660e01b81526004016116239190611c79565b60e060405180830381865afa158015611640573d6000803e3d6000fd5b505050506040513d601f19601f820116820180604052508101906116649190612189565b6040015167ffffffffffffffff1610156116b3576040517f08c379a00000000000000000000000000000000000000000000000000000000081526004016116aa906127d9565b60405180910390fd5b73ff0000000000000000000000000000000000000473ffffffffffffffffffffffffffffffffffffffff1663c067eebb7f000000000000000000000000000000000000000000000000000000000000000083856040518463ffffffff1660e01b8152600401611724939291906121b6565b600060405180830381600087803b15801561173e57600080fd5b505af1158015611752573d6000803e3d6000fd5b50505050600073ffffffffffffffffffffffffffffffffffffffff168373ffffffffffffffffffffffffffffffffffffffff167fddf252ad1be2c89b69c2b068fc378daa952ba7f163c4a11628f55a4df523b3ef846040516117b49190611a62565b60405180910390a3505050565b600073ff0000000000000000000000000000000000000473ffffffffffffffffffffffffffffffffffffffff1663eb7da78c6117fc84611860565b6040518263ffffffff1660e01b81526004016118189190611c79565b602060405180830381865afa158015611835573d6000803e3d6000fd5b505050506040513d601f19601f820116820180604052508101906118599190611fd9565b9050919050565b60008173ffffffffffffffffffffffffffffffffffffffff1660001b9050919050565b600081519050919050565b600082825260208201905092915050565b60005b838110156118bd5780820151818401526020810190506118a2565b60008484015250505050565b6000601f19601f8301169050919050565b60006118e582611883565b6118ef818561188e565b93506118ff81856020860161189f565b611908816118c9565b840191505092915050565b6000602082019050818103600083015261192d81846118da565b905092915050565b6000604051905090565b600080fd5b600080fd5b600073ffffffffffffffffffffffffffffffffffffffff82169050919050565b600061197482611949565b9050919050565b61198481611969565b811461198f57600080fd5b50565b6000813590506119a18161197b565b92915050565b6000819050919050565b6119ba816119a7565b81146119c557600080fd5b50565b6000813590506119d7816119b1565b92915050565b600080604083850312156119f4576119f361193f565b5b6000611a0285828601611992565b9250506020611a13858286016119c8565b9150509250929050565b60008115159050919050565b611a3281611a1d565b82525050565b6000602082019050611a4d6000830184611a29565b92915050565b611a5c816119a7565b82525050565b6000602082019050611a776000830184611a53565b92915050565b600080600060608486031215611a9657611a9561193f565b5b6000611aa486828701611992565b9350506020611ab586828701611992565b9250506040611ac6868287016119c8565b9150509250925092565b600060ff82169050919050565b611ae681611ad0565b82525050565b6000602082019050611b016000830184611add565b92915050565b600060208284031215611b1d57611b1c61193f565b5b6000611b2b848285016119c8565b91505092915050565b6000819050919050565b611b4781611b34565b8114611b5257600080fd5b50565b600081359050611b6481611b3e565b92915050565b600067ffffffffffffffff82169050919050565b611b8781611b6a565b8114611b9257600080fd5b50565b600081359050611ba481611b7e565b92915050565b60008060408385031215611bc157611bc061193f565b5b6000611bcf85828601611b55565b9250506020611be085828601611b95565b9150509250929050565b600080600060608486031215611c0357611c0261193f565b5b6000611c1186828701611b55565b9350506020611c2286828701611992565b9250506040611c3386828701611b95565b9150509250925092565b600060208284031215611c5357611c5261193f565b5b6000611c6184828501611992565b91505092915050565b611c7381611b34565b82525050565b6000602082019050611c8e6000830184611c6a565b92915050565b60008060408385031215611cab57611caa61193f565b5b6000611cb985828601611992565b9250506020611cca85828601611992565b9150509250929050565b600080fd5b600080fd5b7f4e487b7100000000000000000000000000000000000000000000000000000000600052604160045260246000fd5b611d16826118c9565b810181811067ffffffffffffffff82111715611d3557611d34611cde565b5b80604052505050565b6000611d48611935565b9050611d548282611d0d565b919050565b600067ffffffffffffffff821115611d7457611d73611cde565b5b611d7d826118c9565b9050602081019050919050565b6000611d9d611d9884611d59565b611d3e565b905082815260208101848484011115611db957611db8611cd9565b5b611dc484828561189f565b509392505050565b600082601f830112611de157611de0611cd4565b5b8151611df1848260208601611d8a565b91505092915050565b600060208284031215611e1057611e0f61193f565b5b600082015167ffffffffffffffff811115611e2e57611e2d611944565b5b611e3a84828501611dcc565b91505092915050565b600080fd5b600081519050611e5781611b7e565b92915050565b611e6681611ad0565b8114611e7157600080fd5b50565b600081519050611e8381611e5d565b92915050565b611e9281611a1d565b8114611e9d57600080fd5b50565b600081519050611eaf81611e89565b92915050565b600081519050611ec481611b3e565b92915050565b600060a08284031215611ee057611edf611e43565b5b611eea60a0611d3e565b90506000611efa84828501611e48565b6000830152506020611f0e84828501611e74565b6020830152506040611f2284828501611ea0565b6040830152506060611f3684828501611eb5565b6060830152506080611f4a84828501611eb5565b60808301525092915050565b600060a08284031215611f6c57611f6b61193f565b5b6000611f7a84828501611eca565b91505092915050565b600060208284031215611f9957611f9861193f565b5b6000611fa784828501611ea0565b91505092915050565b6000604082019050611fc56000830185611c6a565b611fd26020830184611c6a565b9392505050565b600060208284031215611fef57611fee61193f565b5b6000611ffd84828501611eb5565b91505092915050565b61200f81611b6a565b82525050565b600060808201905061202a6000830187611c6a565b6120376020830186611c6a565b6120446040830185611c6a565b6120516060830184612006565b95945050505050565b6000819050919050565b600061207f61207a61207584611b6a565b61205a565b6119a7565b9050919050565b61208f81612064565b82525050565b60006020820190506120aa6000830184612086565b92915050565b600381106120bd57600080fd5b50565b6000815190506120cf816120b0565b92915050565b600060e082840312156120eb576120ea611e43565b5b6120f560e0611d3e565b9050600061210584828501611eb5565b600083015250602061211984828501611eb5565b602083015250604061212d84828501611e48565b604083015250606061214184828501611eb5565b606083015250608061215584828501611e48565b60808301525060a061216984828501611eb5565b60a08301525060c061217d848285016120c0565b60c08301525092915050565b600060e0828403121561219f5761219e61193f565b5b60006121ad848285016120d5565b91505092915050565b60006060820190506121cb6000830186611c6a565b6121d86020830185611c6a565b6121e56040830184612006565b949350505050565b60006020820190506122026000830184612006565b92915050565b7f45524332303a20617070726f76652066726f6d20746865207a65726f2061646460008201527f7265737300000000000000000000000000000000000000000000000000000000602082015250565b600061226460248361188e565b915061226f82612208565b604082019050919050565b6000602082019050818103600083015261229381612257565b9050919050565b7f45524332303a20617070726f766520746f20746865207a65726f20616464726560008201527f7373000000000000000000000000000000000000000000000000000000000000602082015250565b60006122f660228361188e565b91506123018261229a565b604082019050919050565b60006020820190508181036000830152612325816122e9565b9050919050565b7f45524332303a20696e73756666696369656e7420616c6c6f77616e6365000000600082015250565b6000612362601d8361188e565b915061236d8261232c565b602082019050919050565b6000602082019050818103600083015261239181612355565b9050919050565b7f4e487b7100000000000000000000000000000000000000000000000000000000600052601160045260246000fd5b60006123d2826119a7565b91506123dd836119a7565b92508282039050818111156123f5576123f4612398565b5b92915050565b7f45524332303a207472616e736665722066726f6d20746865207a65726f20616460008201527f6472657373000000000000000000000000000000000000000000000000000000602082015250565b600061245760258361188e565b9150612462826123fb565b604082019050919050565b600060208201905081810360008301526124868161244a565b9050919050565b7f45524332303a207472616e7366657220746f20746865207a65726f206164647260008201527f6573730000000000000000000000000000000000000000000000000000000000602082015250565b60006124e960238361188e565b91506124f48261248d565b604082019050919050565b60006020820190508181036000830152612518816124dc565b9050919050565b7f45524332303a207472616e7366657220616d6f756e742065786365656473207560008201527f696e743634206d61780000000000000000000000000000000000000000000000602082015250565b600061257b60298361188e565b91506125868261251f565b604082019050919050565b600060208201905081810360008301526125aa8161256e565b9050919050565b7f45524332303a207472616e7366657220616d6f756e742065786365656473206260008201527f616c616e63650000000000000000000000000000000000000000000000000000602082015250565b600061260d60268361188e565b9150612618826125b1565b604082019050919050565b6000602082019050818103600083015261263c81612600565b9050919050565b7f45524332303a206275726e2066726f6d20746865207a65726f2061646472657360008201527f7300000000000000000000000000000000000000000000000000000000000000602082015250565b600061269f60218361188e565b91506126aa82612643565b604082019050919050565b600060208201905081810360008301526126ce81612692565b9050919050565b7f45524332303a206275726e20616d6f756e7420657863656564732075696e743660008201527f34206d6178000000000000000000000000000000000000000000000000000000602082015250565b600061273160258361188e565b915061273c826126d5565b604082019050919050565b6000602082019050818103600083015261276081612724565b9050919050565b7f45524332303a206275726e20616d6f756e7420657863656564732062616c616e60008201527f6365000000000000000000000000000000000000000000000000000000000000602082015250565b60006127c360228361188e565b91506127ce82612767565b604082019050919050565b600060208201905081810360008301526127f2816127b6565b905091905056fea26469706673582212200a04ec4965d77946409e6bb44f760b5379b6989083161af618b7ac7794120f6364736f6c634300081c003360c060405234801561001057600080fd5b506040516139c33803806139c38339818101604052810190610032919061056d565b61004384848461022760201b60201c565b73ff0000000000000000000000000000000000000473ffffffffffffffffffffffffffffffffffffffff1663a2ce9c1f826040518263ffffffff1660e01b81526004016100909190610625565b60a060405180830381865afa1580156100ad573d6000803e3d6000fd5b505050506040513d601f19601f820116820180604052508101906100d19190610775565b60400151610114576040517f08c379a000000000000000000000000000000000000000000000000000000000815260040161010b906107ff565b60405180910390fd5b73ff0000000000000000000000000000000000000573ffffffffffffffffffffffffffffffffffffffff1663f7b637bb826040518263ffffffff1660e01b81526004016101619190610625565b602060405180830381865afa15801561017e573d6000803e3d6000fd5b505050506040513d601f19601f820116820180604052508101906101a2919061081f565b6101e1576040517f08c379a00000000000000000000000000000000000000000000000000000000081526004016101d890610898565b60405180910390fd5b8060808181525050508073ffffffffffffffffffffffffffffffffffffffff1660a08173ffffffffffffffffffffffffffffffffffffffff1681525050505050506109df565b60008073ff0000000000000000000000000000000000000473ffffffffffffffffffffffffffffffffffffffff1663b11ecc506000801b856040518363ffffffff1660e01b815260040161027c9291906108c7565b6020604051808303816000875af115801561029b573d6000803e3d6000fd5b505050506040513d601f19601f820116820180604052508101906102bf91906108f0565b905073ff0000000000000000000000000000000000000573ffffffffffffffffffffffffffffffffffffffff1663c57350c68287876040518463ffffffff1660e01b815260040161031293929190610987565b6020604051808303816000875af1158015610331573d6000803e3d6000fd5b505050506040513d601f19601f8201168201806040525081019061035591906108f0565b50809150509392505050565b6000604051905090565b600080fd5b600080fd5b600080fd5b600080fd5b6000601f19601f8301169050919050565b7f4e487b7100000000000000000000000000000000000000000000000000000000600052604160045260246000fd5b6103c88261037f565b810181811067ffffffffffffffff821117156103e7576103e6610390565b5b80604052505050565b60006103fa610361565b905061040682826103bf565b919050565b600067ffffffffffffffff82111561042657610425610390565b5b61042f8261037f565b9050602081019050919050565b60005b8381101561045a57808201518184015260208101905061043f565b60008484015250505050565b60006104796104748461040b565b6103f0565b9050828152602081018484840111156104955761049461037a565b5b6104a084828561043c565b509392505050565b600082601f8301126104bd576104bc610375565b5b81516104cd848260208601610466565b91505092915050565b600060ff82169050919050565b6104ec816104d6565b81146104f757600080fd5b50565b600081519050610509816104e3565b92915050565b600073ffffffffffffffffffffffffffffffffffffffff82169050919050565b600061053a8261050f565b9050919050565b61054a8161052f565b811461055557600080fd5b50565b60008151905061056781610541565b92915050565b600080600080608085870312156105875761058661036b565b5b600085015167ffffffffffffffff8111156105a5576105a4610370565b5b6105b1878288016104a8565b945050602085015167ffffffffffffffff8111156105d2576105d1610370565b5b6105de878288016104a8565b93505060406105ef878288016104fa565b925050606061060087828801610558565b91505092959194509250565b6000819050919050565b61061f8161060c565b82525050565b600060208201905061063a6000830184610616565b92915050565b600080fd5b600067ffffffffffffffff82169050919050565b61066281610645565b811461066d57600080fd5b50565b60008151905061067f81610659565b92915050565b60008115159050919050565b61069a81610685565b81146106a557600080fd5b50565b6000815190506106b781610691565b92915050565b6106c68161060c565b81146106d157600080fd5b50565b6000815190506106e3816106bd565b92915050565b600060a082840312156106ff576106fe610640565b5b61070960a06103f0565b9050600061071984828501610670565b600083015250602061072d848285016104fa565b6020830152506040610741848285016106a8565b6040830152506060610755848285016106d4565b6060830152506080610769848285016106d4565b60808301525092915050565b600060a0828403121561078b5761078a61036b565b5b6000610799848285016106e9565b91505092915050565b600082825260208201905092915050565b7f45524332303a20696e76616c696420746f6b656e206d696e7400000000000000600082015250565b60006107e96019836107a2565b91506107f4826107b3565b602082019050919050565b60006020820190508181036000830152610818816107dc565b9050919050565b6000602082840312156108355761083461036b565b5b6000610843848285016106a8565b91505092915050565b7f45524332303a206d697373696e67204d657461506c6578206d65746164617461600082015250565b60006108826020836107a2565b915061088d8261084c565b602082019050919050565b600060208201905081810360008301526108b181610875565b9050919050565b6108c1816104d6565b82525050565b60006040820190506108dc6000830185610616565b6108e960208301846108b8565b9392505050565b6000602082840312156109065761090561036b565b5b6000610914848285016106d4565b91505092915050565b600081519050919050565b60006109338261091d565b61093d81856107a2565b935061094d81856020860161043c565b6109568161037f565b840191505092915050565b50565b60006109716000836107a2565b915061097c82610961565b600082019050919050565b600060808201905061099c6000830186610616565b81810360208301526109ae8185610928565b905081810360408301526109c28184610928565b905081810360608301526109d581610964565b9050949350505050565b60805160a051612f80610a43600039600061067701526000818161042f01528181610505015281816105f0015281816108f9015281816109ac01528181610c2b015281816110a60152818161114a015281816118970152611ca20152612f806000f3fe608060405234801561001057600080fd5b50600436106101165760003560e01c806367d1c218116100a257806395d89b411161007157806395d89b411461032f578063a9059cbb1461034d578063af25c0771461037d578063af554c5b1461039b578063dd62ed3e146103cb57610116565b806367d1c2181461026f57806370a082311461029f57806379cc6790146102cf57806393e29346146102ff57610116565b8063313ce567116100e9578063313ce567146101b757806340c10f19146101d557806342966c68146101f157806356827373146102215780635ca3e1e91461023f57610116565b806306fdde031461011b578063095ea7b31461013957806318160ddd1461016957806323b872dd14610187575b600080fd5b6101236103fb565b6040516101309190611e0e565b60405180910390f35b610153600480360381019061014e9190611ed8565b6104b5565b6040516101609190611f33565b60405180910390f35b6101716104d1565b60405161017e9190611f5d565b60405180910390f35b6101a1600480360381019061019c9190611f78565b610594565b6040516101ae9190611f33565b60405180910390f35b6101bf6105bc565b6040516101cc9190611fe7565b60405180910390f35b6101ef60048036038101906101ea9190611ed8565b610675565b005b61020b60048036038101906102069190612002565b610a88565b6040516102189190611f33565b60405180910390f35b610229610aa2565b6040516102369190612048565b60405180910390f35b610259600480360381019061025491906120cf565b610b3a565b6040516102669190611f33565b60405180910390f35b6102896004803603810190610284919061210f565b610b4f565b6040516102969190611f33565b60405180910390f35b6102b960048036038101906102b49190612162565b610dab565b6040516102c69190611f5d565b60405180910390f35b6102e960048036038101906102e49190611ed8565b610e5d565b6040516102f69190611f33565b60405180910390f35b610319600480360381019061031491906120cf565b610e83565b6040516103269190611f33565b60405180910390f35b610337611072565b6040516103449190611e0e565b60405180910390f35b61036760048036038101906103629190611ed8565b61112c565b6040516103749190611f33565b60405180910390f35b610385611148565b6040516103929190612048565b60405180910390f35b6103b560048036038101906103b091906120cf565b61116c565b6040516103c29190611f33565b60405180910390f35b6103e560048036038101906103e0919061218f565b6112c3565b6040516103f29190611f5d565b60405180910390f35b606073ff0000000000000000000000000000000000000573ffffffffffffffffffffffffffffffffffffffff1663691f34317f00000000000000000000000000000000000000000000000000000000000000006040518263ffffffff1660e01b815260040161046a9190612048565b600060405180830381865afa158015610487573d6000803e3d6000fd5b505050506040513d6000823e3d601f19601f820116820180604052508101906104b091906122f5565b905090565b6000803390506104c6818585611349565b600191505092915050565b600073ff0000000000000000000000000000000000000473ffffffffffffffffffffffffffffffffffffffff1663a2ce9c1f7f00000000000000000000000000000000000000000000000000000000000000006040518263ffffffff1660e01b81526004016105409190612048565b60a060405180830381865afa15801561055d573d6000803e3d6000fd5b505050506040513d601f19601f820116820180604052508101906105819190612451565b6000015167ffffffffffffffff16905090565b6000803390506105a5858285611511565b6105b08585856115a6565b60019150509392505050565b600073ff0000000000000000000000000000000000000473ffffffffffffffffffffffffffffffffffffffff1663a2ce9c1f7f00000000000000000000000000000000000000000000000000000000000000006040518263ffffffff1660e01b815260040161062b9190612048565b60a060405180830381865afa158015610648573d6000803e3d6000fd5b505050506040513d601f19601f8201168201806040525081019061066c9190612451565b60200151905090565b7f000000000000000000000000000000000000000000000000000000000000000073ffffffffffffffffffffffffffffffffffffffff163373ffffffffffffffffffffffffffffffffffffffff1614610703576040517f08c379a00000000000000000000000000000000000000000000000000000000081526004016106fa906124f0565b60405180910390fd5b600073ffffffffffffffffffffffffffffffffffffffff168273ffffffffffffffffffffffffffffffffffffffff1603610772576040517f08c379a00000000000000000000000000000000000000000000000000000000081526004016107699061255c565b60405180910390fd5b67ffffffffffffffff80168111156107bf576040517f08c379a00000000000000000000000000000000000000000000000000000000081526004016107b6906125ee565b60405180910390fd5b67ffffffffffffffff8016816107d36104d1565b6107dd919061263d565b111561081e576040517f08c379a0000000000000000000000000000000000000000000000000000000008152600401610815906126e3565b60405180910390fd5b600061082983611a07565b905073ff0000000000000000000000000000000000000473ffffffffffffffffffffffffffffffffffffffff16636da9de75826040518263ffffffff1660e01b81526004016108789190612048565b602060405180830381865afa158015610895573d6000803e3d6000fd5b505050506040513d601f19601f820116820180604052508101906108b99190612703565b1561097a5773ff0000000000000000000000000000000000000473ffffffffffffffffffffffffffffffffffffffff1663daa12c5c6108f785611aa6565b7f00000000000000000000000000000000000000000000000000000000000000006040518363ffffffff1660e01b8152600401610935929190612730565b6020604051808303816000875af1158015610954573d6000803e3d6000fd5b505050506040513d601f19601f820116820180604052508101906109789190612759565b505b73ff0000000000000000000000000000000000000473ffffffffffffffffffffffffffffffffffffffff1663c9d0e2fd7f000000000000000000000000000000000000000000000000000000000000000083856040518463ffffffff1660e01b81526004016109eb93929190612795565b600060405180830381600087803b158015610a0557600080fd5b505af1158015610a19573d6000803e3d6000fd5b505050508273ffffffffffffffffffffffffffffffffffffffff16600073ffffffffffffffffffffffffffffffffffffffff167fddf252ad1be2c89b69c2b068fc378daa952ba7f163c4a11628f55a4df523b3ef84604051610a7b9190611f5d565b60405180910390a3505050565b600080339050610a988184611ac9565b6001915050919050565b600073ff0000000000000000000000000000000000000473ffffffffffffffffffffffffffffffffffffffff1663eb7da78c6000801b6040518263ffffffff1660e01b8152600401610af49190612048565b602060405180830381865afa158015610b11573d6000803e3d6000fd5b505050506040513d601f19601f82011682018060405250810190610b359190612759565b905090565b6000610b47833384610b4f565b905092915050565b600080610b5b84611a07565b905073ff0000000000000000000000000000000000000473ffffffffffffffffffffffffffffffffffffffff16636da9de75826040518263ffffffff1660e01b8152600401610baa9190612048565b602060405180830381865afa158015610bc7573d6000803e3d6000fd5b505050506040513d601f19601f82011682018060405250810190610beb9190612703565b15610cac5773ff0000000000000000000000000000000000000473ffffffffffffffffffffffffffffffffffffffff1663daa12c5c610c2986611aa6565b7f00000000000000000000000000000000000000000000000000000000000000006040518363ffffffff1660e01b8152600401610c67929190612730565b6020604051808303816000875af1158015610c86573d6000803e3d6000fd5b505050506040513d601f19601f82011682018060405250810190610caa9190612759565b505b73ff0000000000000000000000000000000000000473ffffffffffffffffffffffffffffffffffffffff16637c0eb810610ce533611aa6565b8784876040518563ffffffff1660e01b8152600401610d0794939291906127cc565b600060405180830381600087803b158015610d2157600080fd5b505af1158015610d35573d6000803e3d6000fd5b505050508373ffffffffffffffffffffffffffffffffffffffff16600073ffffffffffffffffffffffffffffffffffffffff167fddf252ad1be2c89b69c2b068fc378daa952ba7f163c4a11628f55a4df523b3ef85604051610d97919061284c565b60405180910390a360019150509392505050565b600080610db783611a07565b905073ff0000000000000000000000000000000000000473ffffffffffffffffffffffffffffffffffffffff1663d1de5011826040518263ffffffff1660e01b8152600401610e069190612048565b60e060405180830381865afa158015610e23573d6000803e3d6000fd5b505050506040513d601f19601f82011682018060405250810190610e479190612940565b6040015167ffffffffffffffff16915050919050565b600080339050610e6e848285611511565b610e788484611ac9565b600191505092915050565b6000803390506000610e9482611a07565b905060008467ffffffffffffffff161115610f315773ff0000000000000000000000000000000000000473ffffffffffffffffffffffffffffffffffffffff1663a9c158068287876040518463ffffffff1660e01b8152600401610efa93929190612795565b600060405180830381600087803b158015610f1457600080fd5b505af1158015610f28573d6000803e3d6000fd5b50505050610fb1565b73ff0000000000000000000000000000000000000473ffffffffffffffffffffffffffffffffffffffff1663b75c7dc6826040518263ffffffff1660e01b8152600401610f7e9190612048565b600060405180830381600087803b158015610f9857600080fd5b505af1158015610fac573d6000803e3d6000fd5b505050505b600073ffffffffffffffffffffffffffffffffffffffff168273ffffffffffffffffffffffffffffffffffffffff167f8c5be1e5ebec7d5bd14f71427d1e84f3dd0314c0f7b2291e5b200ac8c7c3b9258660405161100f919061284c565b60405180910390a3848273ffffffffffffffffffffffffffffffffffffffff167ff2d0a01e4c49f3439199c8f8950e366e85c4d1bd845552f6da1009b3bb2c1a708660405161105e919061296d565b60405180910390a360019250505092915050565b606073ff0000000000000000000000000000000000000573ffffffffffffffffffffffffffffffffffffffff16636baa03307f00000000000000000000000000000000000000000000000000000000000000006040518263ffffffff1660e01b81526004016110e19190612048565b600060405180830381865afa1580156110fe573d6000803e3d6000fd5b505050506040513d6000823e3d601f19601f8201168201806040525081019061112791906122f5565b905090565b60008033905061113d8185856115a6565b600191505092915050565b7f000000000000000000000000000000000000000000000000000000000000000081565b600080339050600061117d82611a07565b905073ff0000000000000000000000000000000000000473ffffffffffffffffffffffffffffffffffffffff166378423bcf8287876040518463ffffffff1660e01b81526004016111d093929190612795565b600060405180830381600087803b1580156111ea57600080fd5b505af11580156111fe573d6000803e3d6000fd5b50505050600073ffffffffffffffffffffffffffffffffffffffff168273ffffffffffffffffffffffffffffffffffffffff167fddf252ad1be2c89b69c2b068fc378daa952ba7f163c4a11628f55a4df523b3ef86604051611260919061284c565b60405180910390a3848273ffffffffffffffffffffffffffffffffffffffff167fe583d1a637e8abf51f188046ea719a60e5fa9d1b525c90e85666f5f459b3f149866040516112af919061296d565b60405180910390a360019250505092915050565b60008060008473ffffffffffffffffffffffffffffffffffffffff1673ffffffffffffffffffffffffffffffffffffffff16815260200190815260200160002060008373ffffffffffffffffffffffffffffffffffffffff1673ffffffffffffffffffffffffffffffffffffffff16815260200190815260200160002054905092915050565b600073ffffffffffffffffffffffffffffffffffffffff168373ffffffffffffffffffffffffffffffffffffffff16036113b8576040517f08c379a00000000000000000000000000000000000000000000000000000000081526004016113af906129fa565b60405180910390fd5b600073ffffffffffffffffffffffffffffffffffffffff168273ffffffffffffffffffffffffffffffffffffffff1603611427576040517f08c379a000000000000000000000000000000000000000000000000000000000815260040161141e90612a8c565b60405180910390fd5b806000808573ffffffffffffffffffffffffffffffffffffffff1673ffffffffffffffffffffffffffffffffffffffff16815260200190815260200160002060008473ffffffffffffffffffffffffffffffffffffffff1673ffffffffffffffffffffffffffffffffffffffff168152602001908152602001600020819055508173ffffffffffffffffffffffffffffffffffffffff168373ffffffffffffffffffffffffffffffffffffffff167f8c5be1e5ebec7d5bd14f71427d1e84f3dd0314c0f7b2291e5b200ac8c7c3b925836040516115049190611f5d565b60405180910390a3505050565b600061151d84846112c3565b90507fffffffffffffffffffffffffffffffffffffffffffffffffffffffffffffffff81146115a05781811015611589576040517f08c379a000000000000000000000000000000000000000000000000000000000815260040161158090612af8565b60405180910390fd5b61159f8484848461159a9190612b18565b611349565b5b50505050565b600073ffffffffffffffffffffffffffffffffffffffff168373ffffffffffffffffffffffffffffffffffffffff1603611615576040517f08c379a000000000000000000000000000000000000000000000000000000000815260040161160c90612bbe565b60405180910390fd5b600073ffffffffffffffffffffffffffffffffffffffff168273ffffffffffffffffffffffffffffffffffffffff1603611684576040517f08c379a000000000000000000000000000000000000000000000000000000000815260040161167b90612c50565b60405180910390fd5b600061168f84611a07565b9050600061169c84611a07565b905067ffffffffffffffff80168311156116eb576040517f08c379a00000000000000000000000000000000000000000000000000000000081526004016116e290612ce2565b60405180910390fd5b8273ff0000000000000000000000000000000000000473ffffffffffffffffffffffffffffffffffffffff1663d1de5011846040518263ffffffff1660e01b81526004016117399190612048565b60e060405180830381865afa158015611756573d6000803e3d6000fd5b505050506040513d601f19601f8201168201806040525081019061177a9190612940565b6040015167ffffffffffffffff1610156117c9576040517f08c379a00000000000000000000000000000000000000000000000000000000081526004016117c090612d74565b60405180910390fd5b73ff0000000000000000000000000000000000000473ffffffffffffffffffffffffffffffffffffffff16636da9de75826040518263ffffffff1660e01b81526004016118169190612048565b602060405180830381865afa158015611833573d6000803e3d6000fd5b505050506040513d601f19601f820116820180604052508101906118579190612703565b156119185773ff0000000000000000000000000000000000000473ffffffffffffffffffffffffffffffffffffffff1663daa12c5c61189586611aa6565b7f00000000000000000000000000000000000000000000000000000000000000006040518363ffffffff1660e01b81526004016118d3929190612730565b6020604051808303816000875af11580156118f2573d6000803e3d6000fd5b505050506040513d601f19601f820116820180604052508101906119169190612759565b505b73ff0000000000000000000000000000000000000473ffffffffffffffffffffffffffffffffffffffff166378423bcf8383866040518463ffffffff1660e01b815260040161196993929190612795565b600060405180830381600087803b15801561198357600080fd5b505af1158015611997573d6000803e3d6000fd5b505050508373ffffffffffffffffffffffffffffffffffffffff168573ffffffffffffffffffffffffffffffffffffffff167fddf252ad1be2c89b69c2b068fc378daa952ba7f163c4a11628f55a4df523b3ef856040516119f89190611f5d565b60405180910390a35050505050565b600073ff0000000000000000000000000000000000000473ffffffffffffffffffffffffffffffffffffffff1663eb7da78c611a4284611aa6565b6040518263ffffffff1660e01b8152600401611a5e9190612048565b602060405180830381865afa158015611a7b573d6000803e3d6000fd5b505050506040513d601f19601f82011682018060405250810190611a9f9190612759565b9050919050565b60008173ffffffffffffffffffffffffffffffffffffffff1660001b9050919050565b600073ffffffffffffffffffffffffffffffffffffffff168273ffffffffffffffffffffffffffffffffffffffff1603611b38576040517f08c379a0000000000000000000000000000000000000000000000000000000008152600401611b2f90612e06565b60405180910390fd5b67ffffffffffffffff8016811115611b85576040517f08c379a0000000000000000000000000000000000000000000000000000000008152600401611b7c90612e98565b60405180910390fd5b6000611b9083611a07565b90508173ff0000000000000000000000000000000000000473ffffffffffffffffffffffffffffffffffffffff1663d1de5011836040518263ffffffff1660e01b8152600401611be09190612048565b60e060405180830381865afa158015611bfd573d6000803e3d6000fd5b505050506040513d601f19601f82011682018060405250810190611c219190612940565b6040015167ffffffffffffffff161015611c70576040517f08c379a0000000000000000000000000000000000000000000000000000000008152600401611c6790612f2a565b60405180910390fd5b73ff0000000000000000000000000000000000000473ffffffffffffffffffffffffffffffffffffffff1663c067eebb7f000000000000000000000000000000000000000000000000000000000000000083856040518463ffffffff1660e01b8152600401611ce193929190612795565b600060405180830381600087803b158015611cfb57600080fd5b505af1158015611d0f573d6000803e3d6000fd5b50505050600073ffffffffffffffffffffffffffffffffffffffff168373ffffffffffffffffffffffffffffffffffffffff167fddf252ad1be2c89b69c2b068fc378daa952ba7f163c4a11628f55a4df523b3ef84604051611d719190611f5d565b60405180910390a3505050565b600081519050919050565b600082825260208201905092915050565b60005b83811015611db8578082015181840152602081019050611d9d565b60008484015250505050565b6000601f19601f8301169050919050565b6000611de082611d7e565b611dea8185611d89565b9350611dfa818560208601611d9a565b611e0381611dc4565b840191505092915050565b60006020820190508181036000830152611e288184611dd5565b905092915050565b6000604051905090565b600080fd5b600080fd5b600073ffffffffffffffffffffffffffffffffffffffff82169050919050565b6000611e6f82611e44565b9050919050565b611e7f81611e64565b8114611e8a57600080fd5b50565b600081359050611e9c81611e76565b92915050565b6000819050919050565b611eb581611ea2565b8114611ec057600080fd5b50565b600081359050611ed281611eac565b92915050565b60008060408385031215611eef57611eee611e3a565b5b6000611efd85828601611e8d565b9250506020611f0e85828601611ec3565b9150509250929050565b60008115159050919050565b611f2d81611f18565b82525050565b6000602082019050611f486000830184611f24565b92915050565b611f5781611ea2565b82525050565b6000602082019050611f726000830184611f4e565b92915050565b600080600060608486031215611f9157611f90611e3a565b5b6000611f9f86828701611e8d565b9350506020611fb086828701611e8d565b9250506040611fc186828701611ec3565b9150509250925092565b600060ff82169050919050565b611fe181611fcb565b82525050565b6000602082019050611ffc6000830184611fd8565b92915050565b60006020828403121561201857612017611e3a565b5b600061202684828501611ec3565b91505092915050565b6000819050919050565b6120428161202f565b82525050565b600060208201905061205d6000830184612039565b92915050565b61206c8161202f565b811461207757600080fd5b50565b60008135905061208981612063565b92915050565b600067ffffffffffffffff82169050919050565b6120ac8161208f565b81146120b757600080fd5b50565b6000813590506120c9816120a3565b92915050565b600080604083850312156120e6576120e5611e3a565b5b60006120f48582860161207a565b9250506020612105858286016120ba565b9150509250929050565b60008060006060848603121561212857612127611e3a565b5b60006121368682870161207a565b935050602061214786828701611e8d565b9250506040612158868287016120ba565b9150509250925092565b60006020828403121561217857612177611e3a565b5b600061218684828501611e8d565b91505092915050565b600080604083850312156121a6576121a5611e3a565b5b60006121b485828601611e8d565b92505060206121c585828601611e8d565b9150509250929050565b600080fd5b600080fd5b7f4e487b7100000000000000000000000000000000000000000000000000000000600052604160045260246000fd5b61221182611dc4565b810181811067ffffffffffffffff821117156122305761222f6121d9565b5b80604052505050565b6000612243611e30565b905061224f8282612208565b919050565b600067ffffffffffffffff82111561226f5761226e6121d9565b5b61227882611dc4565b9050602081019050919050565b600061229861229384612254565b612239565b9050828152602081018484840111156122b4576122b36121d4565b5b6122bf848285611d9a565b509392505050565b600082601f8301126122dc576122db6121cf565b5b81516122ec848260208601612285565b91505092915050565b60006020828403121561230b5761230a611e3a565b5b600082015167ffffffffffffffff81111561232957612328611e3f565b5b612335848285016122c7565b91505092915050565b600080fd5b600081519050612352816120a3565b92915050565b61236181611fcb565b811461236c57600080fd5b50565b60008151905061237e81612358565b92915050565b61238d81611f18565b811461239857600080fd5b50565b6000815190506123aa81612384565b92915050565b6000815190506123bf81612063565b92915050565b600060a082840312156123db576123da61233e565b5b6123e560a0612239565b905060006123f584828501612343565b60008301525060206124098482850161236f565b602083015250604061241d8482850161239b565b6040830152506060612431848285016123b0565b6060830152506080612445848285016123b0565b60808301525092915050565b600060a0828403121561246757612466611e3a565b5b6000612475848285016123c5565b91505092915050565b7f45524332303a206d7573742068617665206d696e74657220726f6c6520746f2060008201527f6d696e7400000000000000000000000000000000000000000000000000000000602082015250565b60006124da602483611d89565b91506124e58261247e565b604082019050919050565b60006020820190508181036000830152612509816124cd565b9050919050565b7f45524332303a206d696e7420746f20746865207a65726f206164647265737300600082015250565b6000612546601f83611d89565b915061255182612510565b602082019050919050565b6000602082019050818103600083015261257581612539565b9050919050565b7f45524332303a206d696e7420616d6f756e7420657863656564732075696e743660008201527f34206d6178000000000000000000000000000000000000000000000000000000602082015250565b60006125d8602583611d89565b91506125e38261257c565b604082019050919050565b60006020820190508181036000830152612607816125cb565b9050919050565b7f4e487b7100000000000000000000000000000000000000000000000000000000600052601160045260246000fd5b600061264882611ea2565b915061265383611ea2565b925082820190508082111561266b5761266a61260e565b5b92915050565b7f45524332303a20746f74616c206d696e7420616d6f756e74206578636565647360008201527f2075696e743634206d6178000000000000000000000000000000000000000000602082015250565b60006126cd602b83611d89565b91506126d882612671565b604082019050919050565b600060208201905081810360008301526126fc816126c0565b9050919050565b60006020828403121561271957612718611e3a565b5b60006127278482850161239b565b91505092915050565b60006040820190506127456000830185612039565b6127526020830184612039565b9392505050565b60006020828403121561276f5761276e611e3a565b5b600061277d848285016123b0565b91505092915050565b61278f8161208f565b82525050565b60006060820190506127aa6000830186612039565b6127b76020830185612039565b6127c46040830184612786565b949350505050565b60006080820190506127e16000830187612039565b6127ee6020830186612039565b6127fb6040830185612039565b6128086060830184612786565b95945050505050565b6000819050919050565b600061283661283161282c8461208f565b612811565b611ea2565b9050919050565b6128468161281b565b82525050565b6000602082019050612861600083018461283d565b92915050565b6003811061287457600080fd5b50565b60008151905061288681612867565b92915050565b600060e082840312156128a2576128a161233e565b5b6128ac60e0612239565b905060006128bc848285016123b0565b60008301525060206128d0848285016123b0565b60208301525060406128e484828501612343565b60408301525060606128f8848285016123b0565b606083015250608061290c84828501612343565b60808301525060a0612920848285016123b0565b60a08301525060c061293484828501612877565b60c08301525092915050565b600060e0828403121561295657612955611e3a565b5b60006129648482850161288c565b91505092915050565b60006020820190506129826000830184612786565b92915050565b7f45524332303a20617070726f76652066726f6d20746865207a65726f2061646460008201527f7265737300000000000000000000000000000000000000000000000000000000602082015250565b60006129e4602483611d89565b91506129ef82612988565b604082019050919050565b60006020820190508181036000830152612a13816129d7565b9050919050565b7f45524332303a20617070726f766520746f20746865207a65726f20616464726560008201527f7373000000000000000000000000000000000000000000000000000000000000602082015250565b6000612a76602283611d89565b9150612a8182612a1a565b604082019050919050565b60006020820190508181036000830152612aa581612a69565b9050919050565b7f45524332303a20696e73756666696369656e7420616c6c6f77616e6365000000600082015250565b6000612ae2601d83611d89565b9150612aed82612aac565b602082019050919050565b60006020820190508181036000830152612b1181612ad5565b9050919050565b6000612b2382611ea2565b9150612b2e83611ea2565b9250828203905081811115612b4657612b4561260e565b5b92915050565b7f45524332303a207472616e736665722066726f6d20746865207a65726f20616460008201527f6472657373000000000000000000000000000000000000000000000000000000602082015250565b6000612ba8602583611d89565b9150612bb382612b4c565b604082019050919050565b60006020820190508181036000830152612bd781612b9b565b9050919050565b7f45524332303a207472616e7366657220746f20746865207a65726f206164647260008201527f6573730000000000000000000000000000000000000000000000000000000000602082015250565b6000612c3a602383611d89565b9150612c4582612bde565b604082019050919050565b60006020820190508181036000830152612c6981612c2d565b9050919050565b7f45524332303a207472616e7366657220616d6f756e742065786365656473207560008201527f696e743634206d61780000000000000000000000000000000000000000000000602082015250565b6000612ccc602983611d89565b9150612cd782612c70565b604082019050919050565b60006020820190508181036000830152612cfb81612cbf565b9050919050565b7f45524332303a207472616e7366657220616d6f756e742065786365656473206260008201527f616c616e63650000000000000000000000000000000000000000000000000000602082015250565b6000612d5e602683611d89565b9150612d6982612d02565b604082019050919050565b60006020820190508181036000830152612d8d81612d51565b9050919050565b7f45524332303a206275726e2066726f6d20746865207a65726f2061646472657360008201527f7300000000000000000000000000000000000000000000000000000000000000602082015250565b6000612df0602183611d89565b9150612dfb82612d94565b604082019050919050565b60006020820190508181036000830152612e1f81612de3565b9050919050565b7f45524332303a206275726e20616d6f756e7420657863656564732075696e743660008201527f34206d6178000000000000000000000000000000000000000000000000000000602082015250565b6000612e82602583611d89565b9150612e8d82612e26565b604082019050919050565b60006020820190508181036000830152612eb181612e75565b9050919050565b7f45524332303a206275726e20616d6f756e7420657863656564732062616c616e60008201527f6365000000000000000000000000000000000000000000000000000000000000602082015250565b6000612f14602283611d89565b9150612f1f82612eb8565b604082019050919050565b60006020820190508181036000830152612f4381612f07565b905091905056fea2646970667358221220615da3a87b57ff4e448b2aacfbfecd7727adf6ed120fe6d35aa150a1f4e4257b64736f6c634300081c0033a2646970667358221220888f8c63ddc44cbe2b8c11b681ee3094eaadac30eb34c3cf047a6b3b4324378e64736f6c634300081c0033",
  "linkReferences": {},
  "deployedLinkReferences": {}
}