{
  "_format": "hh-sol-artifact-1",
  "contractName": "ERC20ForSplMintable",
  "sourceName": "contracts/ERC20ForSpl.sol",
  "abi": [
    {
      "inputs": [
        {
          "internalType": "string",
          "name": "_name",
          "type": "string"
        },
        {
          "internalType": "string",
          "name": "_symbol",
          "type": "string"
        },
        {
          "internalType": "uint8",
          "name": "_decimals",
          "type": "uint8"
        },
        {
          "internalType": "address",
          "name": "_mint_authority",
          "type": "address"
        }
      ],
      "stateMutability": "nonpayable",
      "type": "constructor"
    },
    {
      "anonymous": false,
      "inputs": [
        {
          "indexed": true,
          "internalType": "address",
          "name": "owner",
          "type": "address"
        },
        {
          "indexed": true,
          "internalType": "address",
          "name": "spender",
          "type": "address"
        },
        {
          "indexed": false,
          "internalType": "uint256",
          "name": "amount",
          "type": "uint256"
        }
      ],
      "name": "Approval",
      "type": "event"
    },
    {
      "anonymous": false,
      "inputs": [
        {
          "indexed": true,
          "internalType": "address",
          "name": "owner",
          "type": "address"
        },
        {
          "indexed": true,
          "internalType": "bytes32",
          "name": "spender",
          "type": "bytes32"
        },
        {
          "indexed": false,
          "internalType": "uint64",
          "name": "amount",
          "type": "uint64"
        }
      ],
      "name": "ApprovalSolana",
      "type": "event"
    },
    {
      "anonymous": false,
      "inputs": [
        {
          "indexed": true,
          "internalType": "address",
          "name": "from",
          "type": "address"
        },
        {
          "indexed": true,
          "internalType": "address",
          "name": "to",
          "type": "address"
        },
        {
          "indexed": false,
          "internalType": "uint256",
          "name": "amount",
          "type": "uint256"
        }
      ],
      "name": "Transfer",
      "type": "event"
    },
    {
      "anonymous": false,
      "inputs": [
        {
          "indexed": true,
          "internalType": "address",
          "name": "from",
          "type": "address"
        },
        {
          "indexed": true,
          "internalType": "bytes32",
          "name": "to",
          "type": "bytes32"
        },
        {
          "indexed": false,
          "internalType": "uint64",
          "name": "amount",
          "type": "uint64"
        }
      ],
      "name": "TransferSolana",
      "type": "event"
    },
    {
      "inputs": [
        {
          "internalType": "address",
          "name": "owner",
          "type": "address"
        },
        {
          "internalType": "address",
          "name": "spender",
          "type": "address"
        }
      ],
      "name": "allowance",
      "outputs": [
        {
          "internalType": "uint256",
          "name": "",
          "type": "uint256"
        }
      ],
      "stateMutability": "view",
      "type": "function"
    },
    {
      "inputs": [
        {
          "internalType": "address",
          "name": "spender",
          "type": "address"
        },
        {
          "internalType": "uint256",
          "name": "amount",
          "type": "uint256"
        }
      ],
      "name": "approve",
      "outputs": [
        {
          "internalType": "bool",
          "name": "",
          "type": "bool"
        }
      ],
      "stateMutability": "nonpayable",
      "type": "function"
    },
    {
      "inputs": [
        {
          "internalType": "bytes32",
          "name": "spender",
          "type": "bytes32"
        },
        {
          "internalType": "uint64",
          "name": "amount",
          "type": "uint64"
        }
      ],
      "name": "approveSolana",
      "outputs": [
        {
          "internalType": "bool",
          "name": "",
          "type": "bool"
        }
      ],
      "stateMutability": "nonpayable",
      "type": "function"
    },
    {
      "inputs": [
        {
          "internalType": "address",
          "name": "who",
          "type": "address"
        }
      ],
      "name": "balanceOf",
      "outputs": [
        {
          "internalType": "uint256",
          "name": "",
          "type": "uint256"
        }
      ],
      "stateMutability": "view",
      "type": "function"
    },
    {
      "inputs": [
        {
          "internalType": "uint256",
          "name": "amount",
          "type": "uint256"
        }
      ],
      "name": "burn",
      "outputs": [
        {
          "internalType": "bool",
          "name": "",
          "type": "bool"
        }
      ],
      "stateMutability": "nonpayable",
      "type": "function"
    },
    {
      "inputs": [
        {
          "internalType": "address",
          "name": "from",
          "type": "address"
        },
        {
          "internalType": "uint256",
          "name": "amount",
          "type": "uint256"
        }
      ],
      "name": "burnFrom",
      "outputs": [
        {
          "internalType": "bool",
          "name": "",
          "type": "bool"
        }
      ],
      "stateMutability": "nonpayable",
      "type": "function"
    },
    {
      "inputs": [
        {
          "internalType": "bytes32",
          "name": "from",
          "type": "bytes32"
        },
        {
          "internalType": "uint64",
          "name": "amount",
          "type": "uint64"
        }
      ],
      "name": "claim",
      "outputs": [
        {
          "internalType": "bool",
          "name": "",
          "type": "bool"
        }
      ],
      "stateMutability": "nonpayable",
      "type": "function"
    },
    {
      "inputs": [
        {
          "internalType": "bytes32",
          "name": "from",
          "type": "bytes32"
        },
        {
          "internalType": "address",
          "name": "to",
          "type": "address"
        },
        {
          "internalType": "uint64",
          "name": "amount",
          "type": "uint64"
        }
      ],
      "name": "claimTo",
      "outputs": [
        {
          "internalType": "bool",
          "name": "",
          "type": "bool"
        }
      ],
      "stateMutability": "nonpayable",
      "type": "function"
    },
    {
      "inputs": [],
      "name": "decimals",
      "outputs": [
        {
          "internalType": "uint8",
          "name": "",
          "type": "uint8"
        }
      ],
      "stateMutability": "view",
      "type": "function"
    },
    {
      "inputs": [],
      "name": "findMintAccount",
      "outputs": [
        {
          "internalType": "bytes32",
          "name": "",
          "type": "bytes32"
        }
      ],
      "stateMutability": "pure",
      "type": "function"
    },
    {
      "inputs": [
        {
          "internalType": "address",
          "name": "to",
          "type": "address"
        },
        {
          "internalType": "uint256",
          "name": "amount",
          "type": "uint256"
        }
      ],
      "name": "mint",
      "outputs": [],
      "stateMutability": "nonpayable",
      "type": "function"
    },
    {
      "inputs": [],
      "name": "name",
      "outputs": [
        {
          "internalType": "string",
          "name": "",
          "type": "string"
        }
      ],
      "stateMutability": "view",
      "type": "function"
    },
    {
      "inputs": [],
      "name": "symbol",
      "outputs": [
        {
          "internalType": "string",
          "name": "",
          "type": "string"
        }
      ],
      "stateMutability": "view",
      "type": "function"
    },
    {
      "inputs": [],
      "name": "tokenMint",
      "outputs": [
        {
          "internalType": "bytes32",
          "name": "",
          "type": "bytes32"
        }
      ],
      "stateMutability": "view",
      "type": "function"
    },
    {
      "inputs": [],
      "name": "totalSupply",
      "outputs": [
        {
          "internalType": "uint256",
          "name": "",
          "type": "uint256"
        }
      ],
      "stateMutability": "view",
      "type": "function"
    },
    {
      "inputs": [
        {
          "internalType": "address",
          "name": "to",
          "type": "address"
        },
        {
          "internalType": "uint256",
          "name": "amount",
          "type": "uint256"
        }
      ],
      "name": "transfer",
      "outputs": [
        {
          "internalType": "bool",
          "name": "",
          "type": "bool"
        }
      ],
      "stateMutability": "nonpayable",
      "type": "function"
    },
    {
      "inputs": [
        {
          "internalType": "address",
          "name": "from",
          "type": "address"
        },
        {
          "internalType": "address",
          "name": "to",
          "type": "address"
        },
        {
          "internalType": "uint256",
          "name": "amount",
          "type": "uint256"
        }
      ],
      "name": "transferFrom",
      "outputs": [
        {
          "internalType": "bool",
          "name": "",
          "type": "bool"
        }
      ],
      "stateMutability": "nonpayable",
      "type": "function"
    },
    {
      "inputs": [
        {
          "internalType": "bytes32",
          "name": "to",
          "type": "bytes32"
        },
        {
          "internalType": "uint64",
          "name": "amount",
          "type": "uint64"
        }
      ],
      "name": "transferSolana",
      "outputs": [
        {
          "internalType": "bool",
          "name": "",
          "type": "bool"
        }
      ],
      "stateMutability": "nonpayable",
      "type": "function"
    }
  ],
  "bytecode": "0x60c060405234801561001057600080fd5b506040516139c33803806139c38339818101604052810190610032919061056d565b61004384848461022760201b60201c565b73ff0000000000000000000000000000000000000473ffffffffffffffffffffffffffffffffffffffff1663a2ce9c1f826040518263ffffffff1660e01b81526004016100909190610625565b60a060405180830381865afa1580156100ad573d6000803e3d6000fd5b505050506040513d601f19601f820116820180604052508101906100d19190610775565b60400151610114576040517f08c379a000000000000000000000000000000000000000000000000000000000815260040161010b906107ff565b60405180910390fd5b73ff0000000000000000000000000000000000000573ffffffffffffffffffffffffffffffffffffffff1663f7b637bb826040518263ffffffff1660e01b81526004016101619190610625565b602060405180830381865afa15801561017e573d6000803e3d6000fd5b505050506040513d601f19601f820116820180604052508101906101a2919061081f565b6101e1576040517f08c379a00000000000000000000000000000000000000000000000000000000081526004016101d890610898565b60405180910390fd5b8060808181525050508073ffffffffffffffffffffffffffffffffffffffff1660a08173ffffffffffffffffffffffffffffffffffffffff1681525050505050506109df565b60008073ff0000000000000000000000000000000000000473ffffffffffffffffffffffffffffffffffffffff1663b11ecc506000801b856040518363ffffffff1660e01b815260040161027c9291906108c7565b6020604051808303816000875af115801561029b573d6000803e3d6000fd5b505050506040513d601f19601f820116820180604052508101906102bf91906108f0565b905073ff0000000000000000000000000000000000000573ffffffffffffffffffffffffffffffffffffffff1663c57350c68287876040518463ffffffff1660e01b815260040161031293929190610987565b6020604051808303816000875af1158015610331573d6000803e3d6000fd5b505050506040513d601f19601f8201168201806040525081019061035591906108f0565b50809150509392505050565b6000604051905090565b600080fd5b600080fd5b600080fd5b600080fd5b6000601f19601f8301169050919050565b7f4e487b7100000000000000000000000000000000000000000000000000000000600052604160045260246000fd5b6103c88261037f565b810181811067ffffffffffffffff821117156103e7576103e6610390565b5b80604052505050565b60006103fa610361565b905061040682826103bf565b919050565b600067ffffffffffffffff82111561042657610425610390565b5b61042f8261037f565b9050602081019050919050565b60005b8381101561045a57808201518184015260208101905061043f565b60008484015250505050565b60006104796104748461040b565b6103f0565b9050828152602081018484840111156104955761049461037a565b5b6104a084828561043c565b509392505050565b600082601f8301126104bd576104bc610375565b5b81516104cd848260208601610466565b91505092915050565b600060ff82169050919050565b6104ec816104d6565b81146104f757600080fd5b50565b600081519050610509816104e3565b92915050565b600073ffffffffffffffffffffffffffffffffffffffff82169050919050565b600061053a8261050f565b9050919050565b61054a8161052f565b811461055557600080fd5b50565b60008151905061056781610541565b92915050565b600080600080608085870312156105875761058661036b565b5b600085015167ffffffffffffffff8111156105a5576105a4610370565b5b6105b1878288016104a8565b945050602085015167ffffffffffffffff8111156105d2576105d1610370565b5b6105de878288016104a8565b93505060406105ef878288016104fa565b925050606061060087828801610558565b91505092959194509250565b6000819050919050565b61061f8161060c565b82525050565b600060208201905061063a6000830184610616565b92915050565b600080fd5b600067ffffffffffffffff82169050919050565b61066281610645565b811461066d57600080fd5b50565b60008151905061067f81610659565b92915050565b60008115159050919050565b61069a81610685565b81146106a557600080fd5b50565b6000815190506106b781610691565b92915050565b6106c68161060c565b81146106d157600080fd5b50565b6000815190506106e3816106bd565b92915050565b600060a082840312156106ff576106fe610640565b5b61070960a06103f0565b9050600061071984828501610670565b600083015250602061072d848285016104fa565b6020830152506040610741848285016106a8565b6040830152506060610755848285016106d4565b6060830152506080610769848285016106d4565b60808301525092915050565b600060a0828403121561078b5761078a61036b565b5b6000610799848285016106e9565b91505092915050565b600082825260208201905092915050565b7f45524332303a20696e76616c696420746f6b656e206d696e7400000000000000600082015250565b60006107e96019836107a2565b91506107f4826107b3565b602082019050919050565b60006020820190508181036000830152610818816107dc565b9050919050565b6000602082840312156108355761083461036b565b5b6000610843848285016106a8565b91505092915050565b7f45524332303a206d697373696e67204d657461506c6578206d65746164617461600082015250565b60006108826020836107a2565b915061088d8261084c565b602082019050919050565b600060208201905081810360008301526108b181610875565b9050919050565b6108c1816104d6565b82525050565b60006040820190506108dc6000830185610616565b6108e960208301846108b8565b9392505050565b6000602082840312156109065761090561036b565b5b6000610914848285016106d4565b91505092915050565b600081519050919050565b60006109338261091d565b61093d81856107a2565b935061094d81856020860161043c565b6109568161037f565b840191505092915050565b50565b60006109716000836107a2565b915061097c82610961565b600082019050919050565b600060808201905061099c6000830186610616565b81810360208301526109ae8185610928565b905081810360408301526109c28184610928565b905081810360608301526109d581610964565b9050949350505050565b60805160a051612f80610a43600039600061067701526000818161042f01528181610505015281816105f0015281816108f9015281816109ac01528181610c2b015281816110a60152818161114a015281816118970152611ca20152612f806000f3fe608060405234801561001057600080fd5b50600436106101165760003560e01c806367d1c218116100a257806395d89b411161007157806395d89b411461032f578063a9059cbb1461034d578063af25c0771461037d578063af554c5b1461039b578063dd62ed3e146103cb57610116565b806367d1c2181461026f57806370a082311461029f57806379cc6790146102cf57806393e29346146102ff57610116565b8063313ce567116100e9578063313ce567146101b757806340c10f19146101d557806342966c68146101f157806356827373146102215780635ca3e1e91461023f57610116565b806306fdde031461011b578063095ea7b31461013957806318160ddd1461016957806323b872dd14610187575b600080fd5b6101236103fb565b6040516101309190611e0e565b60405180910390f35b610153600480360381019061014e9190611ed8565b6104b5565b6040516101609190611f33565b60405180910390f35b6101716104d1565b60405161017e9190611f5d565b60405180910390f35b6101a1600480360381019061019c9190611f78565b610594565b6040516101ae9190611f33565b60405180910390f35b6101bf6105bc565b6040516101cc9190611fe7565b60405180910390f35b6101ef60048036038101906101ea9190611ed8565b610675565b005b61020b60048036038101906102069190612002565b610a88565b6040516102189190611f33565b60405180910390f35b610229610aa2565b6040516102369190612048565b60405180910390f35b610259600480360381019061025491906120cf565b610b3a565b6040516102669190611f33565b60405180910390f35b6102896004803603810190610284919061210f565b610b4f565b6040516102969190611f33565b60405180910390f35b6102b960048036038101906102b49190612162565b610dab565b6040516102c69190611f5d565b60405180910390f35b6102e960048036038101906102e49190611ed8565b610e5d565b6040516102f69190611f33565b60405180910390f35b610319600480360381019061031491906120cf565b610e83565b6040516103269190611f33565b60405180910390f35b610337611072565b6040516103449190611e0e565b60405180910390f35b61036760048036038101906103629190611ed8565b61112c565b6040516103749190611f33565b60405180910390f35b610385611148565b6040516103929190612048565b60405180910390f35b6103b560048036038101906103b091906120cf565b61116c565b6040516103c29190611f33565b60405180910390f35b6103e560048036038101906103e0919061218f565b6112c3565b6040516103f29190611f5d565b60405180910390f35b606073ff0000000000000000000000000000000000000573ffffffffffffffffffffffffffffffffffffffff1663691f34317f00000000000000000000000000000000000000000000000000000000000000006040518263ffffffff1660e01b815260040161046a9190612048565b600060405180830381865afa158015610487573d6000803e3d6000fd5b505050506040513d6000823e3d601f19601f820116820180604052508101906104b091906122f5565b905090565b6000803390506104c6818585611349565b600191505092915050565b600073ff0000000000000000000000000000000000000473ffffffffffffffffffffffffffffffffffffffff1663a2ce9c1f7f00000000000000000000000000000000000000000000000000000000000000006040518263ffffffff1660e01b81526004016105409190612048565b60a060405180830381865afa15801561055d573d6000803e3d6000fd5b505050506040513d601f19601f820116820180604052508101906105819190612451565b6000015167ffffffffffffffff16905090565b6000803390506105a5858285611511565b6105b08585856115a6565b60019150509392505050565b600073ff0000000000000000000000000000000000000473ffffffffffffffffffffffffffffffffffffffff1663a2ce9c1f7f00000000000000000000000000000000000000000000000000000000000000006040518263ffffffff1660e01b815260040161062b9190612048565b60a060405180830381865afa158015610648573d6000803e3d6000fd5b505050506040513d601f19601f8201168201806040525081019061066c9190612451565b60200151905090565b7f000000000000000000000000000000000000000000000000000000000000000073ffffffffffffffffffffffffffffffffffffffff163373ffffffffffffffffffffffffffffffffffffffff1614610703576040517f08c379a00000000000000000000000000000000000000000000000000000000081526004016106fa906124f0565b60405180910390fd5b600073ffffffffffffffffffffffffffffffffffffffff168273ffffffffffffffffffffffffffffffffffffffff1603610772576040517f08c379a00000000000000000000000000000000000000000000000000000000081526004016107699061255c565b60405180910390fd5b67ffffffffffffffff80168111156107bf576040517f08c379a00000000000000000000000000000000000000000000000000000000081526004016107b6906125ee565b60405180910390fd5b67ffffffffffffffff8016816107d36104d1565b6107dd919061263d565b111561081e576040517f08c379a0000000000000000000000000000000000000000000000000000000008152600401610815906126e3565b60405180910390fd5b600061082983611a07565b905073ff0000000000000000000000000000000000000473ffffffffffffffffffffffffffffffffffffffff16636da9de75826040518263ffffffff1660e01b81526004016108789190612048565b602060405180830381865afa158015610895573d6000803e3d6000fd5b505050506040513d601f19601f820116820180604052508101906108b99190612703565b1561097a5773ff0000000000000000000000000000000000000473ffffffffffffffffffffffffffffffffffffffff1663daa12c5c6108f785611aa6565b7f00000000000000000000000000000000000000000000000000000000000000006040518363ffffffff1660e01b8152600401610935929190612730565b6020604051808303816000875af1158015610954573d6000803e3d6000fd5b505050506040513d601f19601f820116820180604052508101906109789190612759565b505b73ff0000000000000000000000000000000000000473ffffffffffffffffffffffffffffffffffffffff1663c9d0e2fd7f000000000000000000000000000000000000000000000000000000000000000083856040518463ffffffff1660e01b81526004016109eb93929190612795565b600060405180830381600087803b158015610a0557600080fd5b505af1158015610a19573d6000803e3d6000fd5b505050508273ffffffffffffffffffffffffffffffffffffffff16600073ffffffffffffffffffffffffffffffffffffffff167fddf252ad1be2c89b69c2b068fc378daa952ba7f163c4a11628f55a4df523b3ef84604051610a7b9190611f5d565b60405180910390a3505050565b600080339050610a988184611ac9565b6001915050919050565b600073ff0000000000000000000000000000000000000473ffffffffffffffffffffffffffffffffffffffff1663eb7da78c6000801b6040518263ffffffff1660e01b8152600401610af49190612048565b602060405180830381865afa158015610b11573d6000803e3d6000fd5b505050506040513d601f19601f82011682018060405250810190610b359190612759565b905090565b6000610b47833384610b4f565b905092915050565b600080610b5b84611a07565b905073ff0000000000000000000000000000000000000473ffffffffffffffffffffffffffffffffffffffff16636da9de75826040518263ffffffff1660e01b8152600401610baa9190612048565b602060405180830381865afa158015610bc7573d6000803e3d6000fd5b505050506040513d601f19601f82011682018060405250810190610beb9190612703565b15610cac5773ff0000000000000000000000000000000000000473ffffffffffffffffffffffffffffffffffffffff1663daa12c5c610c2986611aa6565b7f00000000000000000000000000000000000000000000000000000000000000006040518363ffffffff1660e01b8152600401610c67929190612730565b6020604051808303816000875af1158015610c86573d6000803e3d6000fd5b505050506040513d601f19601f82011682018060405250810190610caa9190612759565b505b73ff0000000000000000000000000000000000000473ffffffffffffffffffffffffffffffffffffffff16637c0eb810610ce533611aa6565b8784876040518563ffffffff1660e01b8152600401610d0794939291906127cc565b600060405180830381600087803b158015610d2157600080fd5b505af1158015610d35573d6000803e3d6000fd5b505050508373ffffffffffffffffffffffffffffffffffffffff16600073ffffffffffffffffffffffffffffffffffffffff167fddf252ad1be2c89b69c2b068fc378daa952ba7f163c4a11628f55a4df523b3ef85604051610d97919061284c565b60405180910390a360019150509392505050565b600080610db783611a07565b905073ff0000000000000000000000000000000000000473ffffffffffffffffffffffffffffffffffffffff1663d1de5011826040518263ffffffff1660e01b8152600401610e069190612048565b60e060405180830381865afa158015610e23573d6000803e3d6000fd5b505050506040513d601f19601f82011682018060405250810190610e479190612940565b6040015167ffffffffffffffff16915050919050565b600080339050610e6e848285611511565b610e788484611ac9565b600191505092915050565b6000803390506000610e9482611a07565b905060008467ffffffffffffffff161115610f315773ff0000000000000000000000000000000000000473ffffffffffffffffffffffffffffffffffffffff1663a9c158068287876040518463ffffffff1660e01b8152600401610efa93929190612795565b600060405180830381600087803b158015610f1457600080fd5b505af1158015610f28573d6000803e3d6000fd5b50505050610fb1565b73ff0000000000000000000000000000000000000473ffffffffffffffffffffffffffffffffffffffff1663b75c7dc6826040518263ffffffff1660e01b8152600401610f7e9190612048565b600060405180830381600087803b158015610f9857600080fd5b505af1158015610fac573d6000803e3d6000fd5b505050505b600073ffffffffffffffffffffffffffffffffffffffff168273ffffffffffffffffffffffffffffffffffffffff167f8c5be1e5ebec7d5bd14f71427d1e84f3dd0314c0f7b2291e5b200ac8c7c3b9258660405161100f919061284c565b60405180910390a3848273ffffffffffffffffffffffffffffffffffffffff167ff2d0a01e4c49f3439199c8f8950e366e85c4d1bd845552f6da1009b3bb2c1a708660405161105e919061296d565b60405180910390a360019250505092915050565b606073ff0000000000000000000000000000000000000573ffffffffffffffffffffffffffffffffffffffff16636baa03307f00000000000000000000000000000000000000000000000000000000000000006040518263ffffffff1660e01b81526004016110e19190612048565b600060405180830381865afa1580156110fe573d6000803e3d6000fd5b505050506040513d6000823e3d601f19601f8201168201806040525081019061112791906122f5565b905090565b60008033905061113d8185856115a6565b600191505092915050565b7f000000000000000000000000000000000000000000000000000000000000000081565b600080339050600061117d82611a07565b905073ff0000000000000000000000000000000000000473ffffffffffffffffffffffffffffffffffffffff166378423bcf8287876040518463ffffffff1660e01b81526004016111d093929190612795565b600060405180830381600087803b1580156111ea57600080fd5b505af11580156111fe573d6000803e3d6000fd5b50505050600073ffffffffffffffffffffffffffffffffffffffff168273ffffffffffffffffffffffffffffffffffffffff167fddf252ad1be2c89b69c2b068fc378daa952ba7f163c4a11628f55a4df523b3ef86604051611260919061284c565b60405180910390a3848273ffffffffffffffffffffffffffffffffffffffff167fe583d1a637e8abf51f188046ea719a60e5fa9d1b525c90e85666f5f459b3f149866040516112af919061296d565b60405180910390a360019250505092915050565b60008060008473ffffffffffffffffffffffffffffffffffffffff1673ffffffffffffffffffffffffffffffffffffffff16815260200190815260200160002060008373ffffffffffffffffffffffffffffffffffffffff1673ffffffffffffffffffffffffffffffffffffffff16815260200190815260200160002054905092915050565b600073ffffffffffffffffffffffffffffffffffffffff168373ffffffffffffffffffffffffffffffffffffffff16036113b8576040517f08c379a00000000000000000000000000000000000000000000000000000000081526004016113af906129fa565b60405180910390fd5b600073ffffffffffffffffffffffffffffffffffffffff168273ffffffffffffffffffffffffffffffffffffffff1603611427576040517f08c379a000000000000000000000000000000000000000000000000000000000815260040161141e90612a8c565b60405180910390fd5b806000808573ffffffffffffffffffffffffffffffffffffffff1673ffffffffffffffffffffffffffffffffffffffff16815260200190815260200160002060008473ffffffffffffffffffffffffffffffffffffffff1673ffffffffffffffffffffffffffffffffffffffff168152602001908152602001600020819055508173ffffffffffffffffffffffffffffffffffffffff168373ffffffffffffffffffffffffffffffffffffffff167f8c5be1e5ebec7d5bd14f71427d1e84f3dd0314c0f7b2291e5b200ac8c7c3b925836040516115049190611f5d565b60405180910390a3505050565b600061151d84846112c3565b90507fffffffffffffffffffffffffffffffffffffffffffffffffffffffffffffffff81146115a05781811015611589576040517f08c379a000000000000000000000000000000000000000000000000000000000815260040161158090612af8565b60405180910390fd5b61159f8484848461159a9190612b18565b611349565b5b50505050565b600073ffffffffffffffffffffffffffffffffffffffff168373ffffffffffffffffffffffffffffffffffffffff1603611615576040517f08c379a000000000000000000000000000000000000000000000000000000000815260040161160c90612bbe565b60405180910390fd5b600073ffffffffffffffffffffffffffffffffffffffff168273ffffffffffffffffffffffffffffffffffffffff1603611684576040517f08c379a000000000000000000000000000000000000000000000000000000000815260040161167b90612c50565b60405180910390fd5b600061168f84611a07565b9050600061169c84611a07565b905067ffffffffffffffff80168311156116eb576040517f08c379a00000000000000000000000000000000000000000000000000000000081526004016116e290612ce2565b60405180910390fd5b8273ff0000000000000000000000000000000000000473ffffffffffffffffffffffffffffffffffffffff1663d1de5011846040518263ffffffff1660e01b81526004016117399190612048565b60e060405180830381865afa158015611756573d6000803e3d6000fd5b505050506040513d601f19601f8201168201806040525081019061177a9190612940565b6040015167ffffffffffffffff1610156117c9576040517f08c379a00000000000000000000000000000000000000000000000000000000081526004016117c090612d74565b60405180910390fd5b73ff0000000000000000000000000000000000000473ffffffffffffffffffffffffffffffffffffffff16636da9de75826040518263ffffffff1660e01b81526004016118169190612048565b602060405180830381865afa158015611833573d6000803e3d6000fd5b505050506040513d601f19601f820116820180604052508101906118579190612703565b156119185773ff0000000000000000000000000000000000000473ffffffffffffffffffffffffffffffffffffffff1663daa12c5c61189586611aa6565b7f00000000000000000000000000000000000000000000000000000000000000006040518363ffffffff1660e01b81526004016118d3929190612730565b6020604051808303816000875af11580156118f2573d6000803e3d6000fd5b505050506040513d601f19601f820116820180604052508101906119169190612759565b505b73ff0000000000000000000000000000000000000473ffffffffffffffffffffffffffffffffffffffff166378423bcf8383866040518463ffffffff1660e01b815260040161196993929190612795565b600060405180830381600087803b15801561198357600080fd5b505af1158015611997573d6000803e3d6000fd5b505050508373ffffffffffffffffffffffffffffffffffffffff168573ffffffffffffffffffffffffffffffffffffffff167fddf252ad1be2c89b69c2b068fc378daa952ba7f163c4a11628f55a4df523b3ef856040516119f89190611f5d565b60405180910390a35050505050565b600073ff0000000000000000000000000000000000000473ffffffffffffffffffffffffffffffffffffffff1663eb7da78c611a4284611aa6565b6040518263ffffffff1660e01b8152600401611a5e9190612048565b602060405180830381865afa158015611a7b573d6000803e3d6000fd5b505050506040513d601f19601f82011682018060405250810190611a9f9190612759565b9050919050565b60008173ffffffffffffffffffffffffffffffffffffffff1660001b9050919050565b600073ffffffffffffffffffffffffffffffffffffffff168273ffffffffffffffffffffffffffffffffffffffff1603611b38576040517f08c379a0000000000000000000000000000000000000000000000000000000008152600401611b2f90612e06565b60405180910390fd5b67ffffffffffffffff8016811115611b85576040517f08c379a0000000000000000000000000000000000000000000000000000000008152600401611b7c90612e98565b60405180910390fd5b6000611b9083611a07565b90508173ff0000000000000000000000000000000000000473ffffffffffffffffffffffffffffffffffffffff1663d1de5011836040518263ffffffff1660e01b8152600401611be09190612048565b60e060405180830381865afa158015611bfd573d6000803e3d6000fd5b505050506040513d601f19601f82011682018060405250810190611c219190612940565b6040015167ffffffffffffffff161015611c70576040517f08c379a0000000000000000000000000000000000000000000000000000000008152600401611c6790612f2a565b60405180910390fd5b73ff0000000000000000000000000000000000000473ffffffffffffffffffffffffffffffffffffffff1663c067eebb7f000000000000000000000000000000000000000000000000000000000000000083856040518463ffffffff1660e01b8152600401611ce193929190612795565b600060405180830381600087803b158015611cfb57600080fd5b505af1158015611d0f573d6000803e3d6000fd5b50505050600073ffffffffffffffffffffffffffffffffffffffff168373ffffffffffffffffffffffffffffffffffffffff167fddf252ad1be2c89b69c2b068fc378daa952ba7f163c4a11628f55a4df523b3ef84604051611d719190611f5d565b60405180910390a3505050565b600081519050919050565b600082825260208201905092915050565b60005b83811015611db8578082015181840152602081019050611d9d565b60008484015250505050565b6000601f19601f8301169050919050565b6000611de082611d7e565b611dea8185611d89565b9350611dfa818560208601611d9a565b611e0381611dc4565b840191505092915050565b60006020820190508181036000830152611e288184611dd5565b905092915050565b6000604051905090565b600080fd5b600080fd5b600073ffffffffffffffffffffffffffffffffffffffff82169050919050565b6000611e6f82611e44565b9050919050565b611e7f81611e64565b8114611e8a57600080fd5b50565b600081359050611e9c81611e76565b92915050565b6000819050919050565b611eb581611ea2565b8114611ec057600080fd5b50565b600081359050611ed281611eac565b92915050565b60008060408385031215611eef57611eee611e3a565b5b6000611efd85828601611e8d565b9250506020611f0e85828601611ec3565b9150509250929050565b60008115159050919050565b611f2d81611f18565b82525050565b6000602082019050611f486000830184611f24565b92915050565b611f5781611ea2565b82525050565b6000602082019050611f726000830184611f4e565b92915050565b600080600060608486031215611f9157611f90611e3a565b5b6000611f9f86828701611e8d565b9350506020611fb086828701611e8d565b9250506040611fc186828701611ec3565b9150509250925092565b600060ff82169050919050565b611fe181611fcb565b82525050565b6000602082019050611ffc6000830184611fd8565b92915050565b60006020828403121561201857612017611e3a565b5b600061202684828501611ec3565b91505092915050565b6000819050919050565b6120428161202f565b82525050565b600060208201905061205d6000830184612039565b92915050565b61206c8161202f565b811461207757600080fd5b50565b60008135905061208981612063565b92915050565b600067ffffffffffffffff82169050919050565b6120ac8161208f565b81146120b757600080fd5b50565b6000813590506120c9816120a3565b92915050565b600080604083850312156120e6576120e5611e3a565b5b60006120f48582860161207a565b9250506020612105858286016120ba565b9150509250929050565b60008060006060848603121561212857612127611e3a565b5b60006121368682870161207a565b935050602061214786828701611e8d565b9250506040612158868287016120ba565b9150509250925092565b60006020828403121561217857612177611e3a565b5b600061218684828501611e8d565b91505092915050565b600080604083850312156121a6576121a5611e3a565b5b60006121b485828601611e8d565b92505060206121c585828601611e8d565b9150509250929050565b600080fd5b600080fd5b7f4e487b7100000000000000000000000000000000000000000000000000000000600052604160045260246000fd5b61221182611dc4565b810181811067ffffffffffffffff821117156122305761222f6121d9565b5b80604052505050565b6000612243611e30565b905061224f8282612208565b919050565b600067ffffffffffffffff82111561226f5761226e6121d9565b5b61227882611dc4565b9050602081019050919050565b600061229861229384612254565b612239565b9050828152602081018484840111156122b4576122b36121d4565b5b6122bf848285611d9a565b509392505050565b600082601f8301126122dc576122db6121cf565b5b81516122ec848260208601612285565b91505092915050565b60006020828403121561230b5761230a611e3a565b5b600082015167ffffffffffffffff81111561232957612328611e3f565b5b612335848285016122c7565b91505092915050565b600080fd5b600081519050612352816120a3565b92915050565b61236181611fcb565b811461236c57600080fd5b50565b60008151905061237e81612358565b92915050565b61238d81611f18565b811461239857600080fd5b50565b6000815190506123aa81612384565b92915050565b6000815190506123bf81612063565b92915050565b600060a082840312156123db576123da61233e565b5b6123e560a0612239565b905060006123f584828501612343565b60008301525060206124098482850161236f565b602083015250604061241d8482850161239b565b6040830152506060612431848285016123b0565b6060830152506080612445848285016123b0565b60808301525092915050565b600060a0828403121561246757612466611e3a565b5b6000612475848285016123c5565b91505092915050565b7f45524332303a206d7573742068617665206d696e74657220726f6c6520746f2060008201527f6d696e7400000000000000000000000000000000000000000000000000000000602082015250565b60006124da602483611d89565b91506124e58261247e565b604082019050919050565b60006020820190508181036000830152612509816124cd565b9050919050565b7f45524332303a206d696e7420746f20746865207a65726f206164647265737300600082015250565b6000612546601f83611d89565b915061255182612510565b602082019050919050565b6000602082019050818103600083015261257581612539565b9050919050565b7f45524332303a206d696e7420616d6f756e7420657863656564732075696e743660008201527f34206d6178000000000000000000000000000000000000000000000000000000602082015250565b60006125d8602583611d89565b91506125e38261257c565b604082019050919050565b60006020820190508181036000830152612607816125cb565b9050919050565b7f4e487b7100000000000000000000000000000000000000000000000000000000600052601160045260246000fd5b600061264882611ea2565b915061265383611ea2565b925082820190508082111561266b5761266a61260e565b5b92915050565b7f45524332303a20746f74616c206d696e7420616d6f756e74206578636565647360008201527f2075696e743634206d6178000000000000000000000000000000000000000000602082015250565b60006126cd602b83611d89565b91506126d882612671565b604082019050919050565b600060208201905081810360008301526126fc816126c0565b9050919050565b60006020828403121561271957612718611e3a565b5b60006127278482850161239b565b91505092915050565b60006040820190506127456000830185612039565b6127526020830184612039565b9392505050565b60006020828403121561276f5761276e611e3a565b5b600061277d848285016123b0565b91505092915050565b61278f8161208f565b82525050565b60006060820190506127aa6000830186612039565b6127b76020830185612039565b6127c46040830184612786565b949350505050565b60006080820190506127e16000830187612039565b6127ee6020830186612039565b6127fb6040830185612039565b6128086060830184612786565b95945050505050565b6000819050919050565b600061283661283161282c8461208f565b612811565b611ea2565b9050919050565b6128468161281b565b82525050565b6000602082019050612861600083018461283d565b92915050565b6003811061287457600080fd5b50565b60008151905061288681612867565b92915050565b600060e082840312156128a2576128a161233e565b5b6128ac60e0612239565b905060006128bc848285016123b0565b60008301525060206128d0848285016123b0565b60208301525060406128e484828501612343565b60408301525060606128f8848285016123b0565b606083015250608061290c84828501612343565b60808301525060a0612920848285016123b0565b60a08301525060c061293484828501612877565b60c08301525092915050565b600060e0828403121561295657612955611e3a565b5b60006129648482850161288c565b91505092915050565b60006020820190506129826000830184612786565b92915050565b7f45524332303a20617070726f76652066726f6d20746865207a65726f2061646460008201527f7265737300000000000000000000000000000000000000000000000000000000602082015250565b60006129e4602483611d89565b91506129ef82612988565b604082019050919050565b60006020820190508181036000830152612a13816129d7565b9050919050565b7f45524332303a20617070726f766520746f20746865207a65726f20616464726560008201527f7373000000000000000000000000000000000000000000000000000000000000602082015250565b6000612a76602283611d89565b9150612a8182612a1a565b604082019050919050565b60006020820190508181036000830152612aa581612a69565b9050919050565b7f45524332303a20696e73756666696369656e7420616c6c6f77616e6365000000600082015250565b6000612ae2601d83611d89565b9150612aed82612aac565b602082019050919050565b60006020820190508181036000830152612b1181612ad5565b9050919050565b6000612b2382611ea2565b9150612b2e83611ea2565b9250828203905081811115612b4657612b4561260e565b5b92915050565b7f45524332303a207472616e736665722066726f6d20746865207a65726f20616460008201527f6472657373000000000000000000000000000000000000000000000000000000602082015250565b6000612ba8602583611d89565b9150612bb382612b4c565b604082019050919050565b60006020820190508181036000830152612bd781612b9b565b9050919050565b7f45524332303a207472616e7366657220746f20746865207a65726f206164647260008201527f6573730000000000000000000000000000000000000000000000000000000000602082015250565b6000612c3a602383611d89565b9150612c4582612bde565b604082019050919050565b60006020820190508181036000830152612c6981612c2d565b9050919050565b7f45524332303a207472616e7366657220616d6f756e742065786365656473207560008201527f696e743634206d61780000000000000000000000000000000000000000000000602082015250565b6000612ccc602983611d89565b9150612cd782612c70565b604082019050919050565b60006020820190508181036000830152612cfb81612cbf565b9050919050565b7f45524332303a207472616e7366657220616d6f756e742065786365656473206260008201527f616c616e63650000000000000000000000000000000000000000000000000000602082015250565b6000612d5e602683611d89565b9150612d6982612d02565b604082019050919050565b60006020820190508181036000830152612d8d81612d51565b9050919050565b7f45524332303a206275726e2066726f6d20746865207a65726f2061646472657360008201527f7300000000000000000000000000000000000000000000000000000000000000602082015250565b6000612df0602183611d89565b9150612dfb82612d94565b604082019050919050565b60006020820190508181036000830152612e1f81612de3565b9050919050565b7f45524332303a206275726e20616d6f756e7420657863656564732075696e743660008201527f34206d6178000000000000000000000000000000000000000000000000000000602082015250565b6000612e82602583611d89565b9150612e8d82612e26565b604082019050919050565b60006020820190508181036000830152612eb181612e75565b9050919050565b7f45524332303a206275726e20616d6f756e7420657863656564732062616c616e60008201527f6365000000000000000000000000000000000000000000000000000000000000602082015250565b6000612f14602283611d89565b9150612f1f82612eb8565b604082019050919050565b60006020820190508181036000830152612f4381612f07565b905091905056fea2646970667358221220615da3a87b57ff4e448b2aacfbfecd7727adf6ed120fe6d35aa150a1f4e4257b64736f6c634300081c0033",
  "linkReferences": {},
  "deployedLinkReferences": {}
}