{
  "_format": "hh-sol-artifact-1",
  "contractName": "ERC20ForSpl",
  "sourceName": "contracts/ERC20ForSpl.sol",
  "abi": [
    {
      "inputs": [
        {
          "internalType": "bytes32",
          "name": "_tokenMint",
          "type": "bytes32"
        }
      ],
      "stateMutability": "nonpayable",
      "type": "constructor"
    },
    {
      "anonymous": false,
      "inputs": [
        {
          "indexed": true,
          "internalType": "address",
          "name": "owner",
          "type": "address"
        },
        {
          "indexed": true,
          "internalType": "address",
          "name": "spender",
          "type": "address"
        },
        {
          "indexed": false,
          "internalType": "uint256",
          "name": "amount",
          "type": "uint256"
        }
      ],
      "name": "Approval",
      "type": "event"
    },
    {
      "anonymous": false,
      "inputs": [
        {
          "indexed": true,
          "internalType": "address",
          "name": "owner",
          "type": "address"
        },
        {
          "indexed": true,
          "internalType": "bytes32",
          "name": "spender",
          "type": "bytes32"
        },
        {
          "indexed": false,
          "internalType": "uint64",
          "name": "amount",
          "type": "uint64"
        }
      ],
      "name": "ApprovalSolana",
      "type": "event"
    },
    {
      "anonymous": false,
      "inputs": [
        {
          "indexed": true,
          "internalType": "address",
          "name": "from",
          "type": "address"
        },
        {
          "indexed": true,
          "internalType": "address",
          "name": "to",
          "type": "address"
        },
        {
          "indexed": false,
          "internalType": "uint256",
          "name": "amount",
          "type": "uint256"
        }
      ],
      "name": "Transfer",
      "type": "event"
    },
    {
      "anonymous": false,
      "inputs": [
        {
          "indexed": true,
          "internalType": "address",
          "name": "from",
          "type": "address"
        },
        {
          "indexed": true,
          "internalType": "bytes32",
          "name": "to",
          "type": "bytes32"
        },
        {
          "indexed": false,
          "internalType": "uint64",
          "name": "amount",
          "type": "uint64"
        }
      ],
      "name": "TransferSolana",
      "type": "event"
    },
    {
      "inputs": [
        {
          "internalType": "address",
          "name": "owner",
          "type": "address"
        },
        {
          "internalType": "address",
          "name": "spender",
          "type": "address"
        }
      ],
      "name": "allowance",
      "outputs": [
        {
          "internalType": "uint256",
          "name": "",
          "type": "uint256"
        }
      ],
      "stateMutability": "view",
      "type": "function"
    },
    {
      "inputs": [
        {
          "internalType": "address",
          "name": "spender",
          "type": "address"
        },
        {
          "internalType": "uint256",
          "name": "amount",
          "type": "uint256"
        }
      ],
      "name": "approve",
      "outputs": [
        {
          "internalType": "bool",
          "name": "",
          "type": "bool"
        }
      ],
      "stateMutability": "nonpayable",
      "type": "function"
    },
    {
      "inputs": [
        {
          "internalType": "bytes32",
          "name": "spender",
          "type": "bytes32"
        },
        {
          "internalType": "uint64",
          "name": "amount",
          "type": "uint64"
        }
      ],
      "name": "approveSolana",
      "outputs": [
        {
          "internalType": "bool",
          "name": "",
          "type": "bool"
        }
      ],
      "stateMutability": "nonpayable",
      "type": "function"
    },
    {
      "inputs": [
        {
          "internalType": "address",
          "name": "who",
          "type": "address"
        }
      ],
      "name": "balanceOf",
      "outputs": [
        {
          "internalType": "uint256",
          "name": "",
          "type": "uint256"
        }
      ],
      "stateMutability": "view",
      "type": "function"
    },
    {
      "inputs": [
        {
          "internalType": "uint256",
          "name": "amount",
          "type": "uint256"
        }
      ],
      "name": "burn",
      "outputs": [
        {
          "internalType": "bool",
          "name": "",
          "type": "bool"
        }
      ],
      "stateMutability": "nonpayable",
      "type": "function"
    },
    {
      "inputs": [
        {
          "internalType": "address",
          "name": "from",
          "type": "address"
        },
        {
          "internalType": "uint256",
          "name": "amount",
          "type": "uint256"
        }
      ],
      "name": "burnFrom",
      "outputs": [
        {
          "internalType": "bool",
          "name": "",
          "type": "bool"
        }
      ],
      "stateMutability": "nonpayable",
      "type": "function"
    },
    {
      "inputs": [
        {
          "internalType": "bytes32",
          "name": "from",
          "type": "bytes32"
        },
        {
          "internalType": "uint64",
          "name": "amount",
          "type": "uint64"
        }
      ],
      "name": "claim",
      "outputs": [
        {
          "internalType": "bool",
          "name": "",
          "type": "bool"
        }
      ],
      "stateMutability": "nonpayable",
      "type": "function"
    },
    {
      "inputs": [
        {
          "internalType": "bytes32",
          "name": "from",
          "type": "bytes32"
        },
        {
          "internalType": "address",
          "name": "to",
          "type": "address"
        },
        {
          "internalType": "uint64",
          "name": "amount",
          "type": "uint64"
        }
      ],
      "name": "claimTo",
      "outputs": [
        {
          "internalType": "bool",
          "name": "",
          "type": "bool"
        }
      ],
      "stateMutability": "nonpayable",
      "type": "function"
    },
    {
      "inputs": [],
      "name": "decimals",
      "outputs": [
        {
          "internalType": "uint8",
          "name": "",
          "type": "uint8"
        }
      ],
      "stateMutability": "view",
      "type": "function"
    },
    {
      "inputs": [],
      "name": "name",
      "outputs": [
        {
          "internalType": "string",
          "name": "",
          "type": "string"
        }
      ],
      "stateMutability": "view",
      "type": "function"
    },
    {
      "inputs": [],
      "name": "symbol",
      "outputs": [
        {
          "internalType": "string",
          "name": "",
          "type": "string"
        }
      ],
      "stateMutability": "view",
      "type": "function"
    },
    {
      "inputs": [],
      "name": "tokenMint",
      "outputs": [
        {
          "internalType": "bytes32",
          "name": "",
          "type": "bytes32"
        }
      ],
      "stateMutability": "view",
      "type": "function"
    },
    {
      "inputs": [],
      "name": "totalSupply",
      "outputs": [
        {
          "internalType": "uint256",
          "name": "",
          "type": "uint256"
        }
      ],
      "stateMutability": "view",
      "type": "function"
    },
    {
      "inputs": [
        {
          "internalType": "address",
          "name": "to",
          "type": "address"
        },
        {
          "internalType": "uint256",
          "name": "amount",
          "type": "uint256"
        }
      ],
      "name": "transfer",
      "outputs": [
        {
          "internalType": "bool",
          "name": "",
          "type": "bool"
        }
      ],
      "stateMutability": "nonpayable",
      "type": "function"
    },
    {
      "inputs": [
        {
          "internalType": "address",
          "name": "from",
          "type": "address"
        },
        {
          "internalType": "address",
          "name": "to",
          "type": "address"
        },
        {
          "internalType": "uint256",
          "name": "amount",
          "type": "uint256"
        }
      ],
      "name": "transferFrom",
      "outputs": [
        {
          "internalType": "bool",
          "name": "",
          "type": "bool"
        }
      ],
      "stateMutability": "nonpayable",
      "type": "function"
    },
    {
      "inputs": [
        {
          "internalType": "bytes32",
          "name": "to",
          "type": "bytes32"
        },
        {
          "internalType": "uint64",
          "name": "amount",
          "type": "uint64"
        }
      ],
      "name": "transferSolana",
      "outputs": [
        {
          "internalType": "bool",
          "name": "",
          "type": "bool"
        }
      ],
      "stateMutability": "nonpayable",
      "type": "function"
    }
  ],
  "bytecode": "0x60a060405234801561001057600080fd5b50604051612e06380380612e0683398181016040528101906100329190610223565b73ff0000000000000000000000000000000000000473ffffffffffffffffffffffffffffffffffffffff1663a2ce9c1f826040518263ffffffff1660e01b815260040161007f919061025f565b60a060405180830381865afa15801561009c573d6000803e3d6000fd5b505050506040513d601f19601f820116820180604052508101906100c09190610448565b60400151610103576040517f08c379a00000000000000000000000000000000000000000000000000000000081526004016100fa906104d2565b60405180910390fd5b73ff0000000000000000000000000000000000000573ffffffffffffffffffffffffffffffffffffffff1663f7b637bb826040518263ffffffff1660e01b8152600401610150919061025f565b602060405180830381865afa15801561016d573d6000803e3d6000fd5b505050506040513d601f19601f8201168201806040525081019061019191906104f2565b6101d0576040517f08c379a00000000000000000000000000000000000000000000000000000000081526004016101c79061056b565b60405180910390fd5b80608081815250505061058b565b6000604051905090565b600080fd5b6000819050919050565b610200816101ed565b811461020b57600080fd5b50565b60008151905061021d816101f7565b92915050565b600060208284031215610239576102386101e8565b5b60006102478482850161020e565b91505092915050565b610259816101ed565b82525050565b60006020820190506102746000830184610250565b92915050565b600080fd5b6000601f19601f8301169050919050565b7f4e487b7100000000000000000000000000000000000000000000000000000000600052604160045260246000fd5b6102c88261027f565b810181811067ffffffffffffffff821117156102e7576102e6610290565b5b80604052505050565b60006102fa6101de565b905061030682826102bf565b919050565b600067ffffffffffffffff82169050919050565b6103288161030b565b811461033357600080fd5b50565b6000815190506103458161031f565b92915050565b600060ff82169050919050565b6103618161034b565b811461036c57600080fd5b50565b60008151905061037e81610358565b92915050565b60008115159050919050565b61039981610384565b81146103a457600080fd5b50565b6000815190506103b681610390565b92915050565b600060a082840312156103d2576103d161027a565b5b6103dc60a06102f0565b905060006103ec84828501610336565b60008301525060206104008482850161036f565b6020830152506040610414848285016103a7565b60408301525060606104288482850161020e565b606083015250608061043c8482850161020e565b60808301525092915050565b600060a0828403121561045e5761045d6101e8565b5b600061046c848285016103bc565b91505092915050565b600082825260208201905092915050565b7f45524332303a20696e76616c696420746f6b656e206d696e7400000000000000600082015250565b60006104bc601983610475565b91506104c782610486565b602082019050919050565b600060208201905081810360008301526104eb816104af565b9050919050565b600060208284031215610508576105076101e8565b5b6000610516848285016103a7565b91505092915050565b7f45524332303a206d697373696e67204d657461506c6578206d65746164617461600082015250565b6000610555602083610475565b91506105608261051f565b602082019050919050565b6000602082019050818103600083015261058481610548565b9050919050565b60805161282f6105d7600039600081816103df015281816104b5015281816105a00152818161073001528181610bab01528181610c4f0152818161139c01526116e5015261282f6000f3fe608060405234801561001057600080fd5b50600436106101005760003560e01c806370a0823111610097578063a9059cbb11610066578063a9059cbb146102fd578063af25c0771461032d578063af554c5b1461034b578063dd62ed3e1461037b57610100565b806370a082311461024f57806379cc67901461027f57806393e29346146102af57806395d89b41146102df57610100565b8063313ce567116100d3578063313ce567146101a157806342966c68146101bf5780635ca3e1e9146101ef57806367d1c2181461021f57610100565b806306fdde0314610105578063095ea7b31461012357806318160ddd1461015357806323b872dd14610171575b600080fd5b61010d6103ab565b60405161011a9190611913565b60405180910390f35b61013d600480360381019061013891906119dd565b610465565b60405161014a9190611a38565b60405180910390f35b61015b610481565b6040516101689190611a62565b60405180910390f35b61018b60048036038101906101869190611a7d565b610544565b6040516101989190611a38565b60405180910390f35b6101a961056c565b6040516101b69190611aec565b60405180910390f35b6101d960048036038101906101d49190611b07565b610625565b6040516101e69190611a38565b60405180910390f35b61020960048036038101906102049190611baa565b61063f565b6040516102169190611a38565b60405180910390f35b61023960048036038101906102349190611bea565b610654565b6040516102469190611a38565b60405180910390f35b61026960048036038101906102649190611c3d565b6108b0565b6040516102769190611a62565b60405180910390f35b610299600480360381019061029491906119dd565b610962565b6040516102a69190611a38565b60405180910390f35b6102c960048036038101906102c49190611baa565b610988565b6040516102d69190611a38565b60405180910390f35b6102e7610b77565b6040516102f49190611913565b60405180910390f35b610317600480360381019061031291906119dd565b610c31565b6040516103249190611a38565b60405180910390f35b610335610c4d565b6040516103429190611c79565b60405180910390f35b61036560048036038101906103609190611baa565b610c71565b6040516103729190611a38565b60405180910390f35b61039560048036038101906103909190611c94565b610dc8565b6040516103a29190611a62565b60405180910390f35b606073ff0000000000000000000000000000000000000573ffffffffffffffffffffffffffffffffffffffff1663691f34317f00000000000000000000000000000000000000000000000000000000000000006040518263ffffffff1660e01b815260040161041a9190611c79565b600060405180830381865afa158015610437573d6000803e3d6000fd5b505050506040513d6000823e3d601f19601f820116820180604052508101906104609190611dfa565b905090565b600080339050610476818585610e4e565b600191505092915050565b600073ff0000000000000000000000000000000000000473ffffffffffffffffffffffffffffffffffffffff1663a2ce9c1f7f00000000000000000000000000000000000000000000000000000000000000006040518263ffffffff1660e01b81526004016104f09190611c79565b60a060405180830381865afa15801561050d573d6000803e3d6000fd5b505050506040513d601f19601f820116820180604052508101906105319190611f56565b6000015167ffffffffffffffff16905090565b600080339050610555858285611016565b6105608585856110ab565b60019150509392505050565b600073ff0000000000000000000000000000000000000473ffffffffffffffffffffffffffffffffffffffff1663a2ce9c1f7f00000000000000000000000000000000000000000000000000000000000000006040518263ffffffff1660e01b81526004016105db9190611c79565b60a060405180830381865afa1580156105f8573d6000803e3d6000fd5b505050506040513d601f19601f8201168201806040525081019061061c9190611f56565b60200151905090565b600080339050610635818461150c565b6001915050919050565b600061064c833384610654565b905092915050565b600080610660846117c1565b905073ff0000000000000000000000000000000000000473ffffffffffffffffffffffffffffffffffffffff16636da9de75826040518263ffffffff1660e01b81526004016106af9190611c79565b602060405180830381865afa1580156106cc573d6000803e3d6000fd5b505050506040513d601f19601f820116820180604052508101906106f09190611f83565b156107b15773ff0000000000000000000000000000000000000473ffffffffffffffffffffffffffffffffffffffff1663daa12c5c61072e86611860565b7f00000000000000000000000000000000000000000000000000000000000000006040518363ffffffff1660e01b815260040161076c929190611fb0565b6020604051808303816000875af115801561078b573d6000803e3d6000fd5b505050506040513d601f19601f820116820180604052508101906107af9190611fd9565b505b73ff0000000000000000000000000000000000000473ffffffffffffffffffffffffffffffffffffffff16637c0eb8106107ea33611860565b8784876040518563ffffffff1660e01b815260040161080c9493929190612015565b600060405180830381600087803b15801561082657600080fd5b505af115801561083a573d6000803e3d6000fd5b505050508373ffffffffffffffffffffffffffffffffffffffff16600073ffffffffffffffffffffffffffffffffffffffff167fddf252ad1be2c89b69c2b068fc378daa952ba7f163c4a11628f55a4df523b3ef8560405161089c9190612095565b60405180910390a360019150509392505050565b6000806108bc836117c1565b905073ff0000000000000000000000000000000000000473ffffffffffffffffffffffffffffffffffffffff1663d1de5011826040518263ffffffff1660e01b815260040161090b9190611c79565b60e060405180830381865afa158015610928573d6000803e3d6000fd5b505050506040513d601f19601f8201168201806040525081019061094c9190612189565b6040015167ffffffffffffffff16915050919050565b600080339050610973848285611016565b61097d848461150c565b600191505092915050565b6000803390506000610999826117c1565b905060008467ffffffffffffffff161115610a365773ff0000000000000000000000000000000000000473ffffffffffffffffffffffffffffffffffffffff1663a9c158068287876040518463ffffffff1660e01b81526004016109ff939291906121b6565b600060405180830381600087803b158015610a1957600080fd5b505af1158015610a2d573d6000803e3d6000fd5b50505050610ab6565b73ff0000000000000000000000000000000000000473ffffffffffffffffffffffffffffffffffffffff1663b75c7dc6826040518263ffffffff1660e01b8152600401610a839190611c79565b600060405180830381600087803b158015610a9d57600080fd5b505af1158015610ab1573d6000803e3d6000fd5b505050505b600073ffffffffffffffffffffffffffffffffffffffff168273ffffffffffffffffffffffffffffffffffffffff167f8c5be1e5ebec7d5bd14f71427d1e84f3dd0314c0f7b2291e5b200ac8c7c3b92586604051610b149190612095565b60405180910390a3848273ffffffffffffffffffffffffffffffffffffffff167ff2d0a01e4c49f3439199c8f8950e366e85c4d1bd845552f6da1009b3bb2c1a7086604051610b6391906121ed565b60405180910390a360019250505092915050565b606073ff0000000000000000000000000000000000000573ffffffffffffffffffffffffffffffffffffffff16636baa03307f00000000000000000000000000000000000000000000000000000000000000006040518263ffffffff1660e01b8152600401610be69190611c79565b600060405180830381865afa158015610c03573d6000803e3d6000fd5b505050506040513d6000823e3d601f19601f82011682018060405250810190610c2c9190611dfa565b905090565b600080339050610c428185856110ab565b600191505092915050565b7f000000000000000000000000000000000000000000000000000000000000000081565b6000803390506000610c82826117c1565b905073ff0000000000000000000000000000000000000473ffffffffffffffffffffffffffffffffffffffff166378423bcf8287876040518463ffffffff1660e01b8152600401610cd5939291906121b6565b600060405180830381600087803b158015610cef57600080fd5b505af1158015610d03573d6000803e3d6000fd5b50505050600073ffffffffffffffffffffffffffffffffffffffff168273ffffffffffffffffffffffffffffffffffffffff167fddf252ad1be2c89b69c2b068fc378daa952ba7f163c4a11628f55a4df523b3ef86604051610d659190612095565b60405180910390a3848273ffffffffffffffffffffffffffffffffffffffff167fe583d1a637e8abf51f188046ea719a60e5fa9d1b525c90e85666f5f459b3f14986604051610db491906121ed565b60405180910390a360019250505092915050565b60008060008473ffffffffffffffffffffffffffffffffffffffff1673ffffffffffffffffffffffffffffffffffffffff16815260200190815260200160002060008373ffffffffffffffffffffffffffffffffffffffff1673ffffffffffffffffffffffffffffffffffffffff16815260200190815260200160002054905092915050565b600073ffffffffffffffffffffffffffffffffffffffff168373ffffffffffffffffffffffffffffffffffffffff1603610ebd576040517f08c379a0000000000000000000000000000000000000000000000000000000008152600401610eb49061227a565b60405180910390fd5b600073ffffffffffffffffffffffffffffffffffffffff168273ffffffffffffffffffffffffffffffffffffffff1603610f2c576040517f08c379a0000000000000000000000000000000000000000000000000000000008152600401610f239061230c565b60405180910390fd5b806000808573ffffffffffffffffffffffffffffffffffffffff1673ffffffffffffffffffffffffffffffffffffffff16815260200190815260200160002060008473ffffffffffffffffffffffffffffffffffffffff1673ffffffffffffffffffffffffffffffffffffffff168152602001908152602001600020819055508173ffffffffffffffffffffffffffffffffffffffff168373ffffffffffffffffffffffffffffffffffffffff167f8c5be1e5ebec7d5bd14f71427d1e84f3dd0314c0f7b2291e5b200ac8c7c3b925836040516110099190611a62565b60405180910390a3505050565b60006110228484610dc8565b90507fffffffffffffffffffffffffffffffffffffffffffffffffffffffffffffffff81146110a5578181101561108e576040517f08c379a000000000000000000000000000000000000000000000000000000000815260040161108590612378565b60405180910390fd5b6110a48484848461109f91906123c7565b610e4e565b5b50505050565b600073ffffffffffffffffffffffffffffffffffffffff168373ffffffffffffffffffffffffffffffffffffffff160361111a576040517f08c379a00000000000000000000000000000000000000000000000000000000081526004016111119061246d565b60405180910390fd5b600073ffffffffffffffffffffffffffffffffffffffff168273ffffffffffffffffffffffffffffffffffffffff1603611189576040517f08c379a0000000000000000000000000000000000000000000000000000000008152600401611180906124ff565b60405180910390fd5b6000611194846117c1565b905060006111a1846117c1565b905067ffffffffffffffff80168311156111f0576040517f08c379a00000000000000000000000000000000000000000000000000000000081526004016111e790612591565b60405180910390fd5b8273ff0000000000000000000000000000000000000473ffffffffffffffffffffffffffffffffffffffff1663d1de5011846040518263ffffffff1660e01b815260040161123e9190611c79565b60e060405180830381865afa15801561125b573d6000803e3d6000fd5b505050506040513d601f19601f8201168201806040525081019061127f9190612189565b6040015167ffffffffffffffff1610156112ce576040517f08c379a00000000000000000000000000000000000000000000000000000000081526004016112c590612623565b60405180910390fd5b73ff0000000000000000000000000000000000000473ffffffffffffffffffffffffffffffffffffffff16636da9de75826040518263ffffffff1660e01b815260040161131b9190611c79565b602060405180830381865afa158015611338573d6000803e3d6000fd5b505050506040513d601f19601f8201168201806040525081019061135c9190611f83565b1561141d5773ff0000000000000000000000000000000000000473ffffffffffffffffffffffffffffffffffffffff1663daa12c5c61139a86611860565b7f00000000000000000000000000000000000000000000000000000000000000006040518363ffffffff1660e01b81526004016113d8929190611fb0565b6020604051808303816000875af11580156113f7573d6000803e3d6000fd5b505050506040513d601f19601f8201168201806040525081019061141b9190611fd9565b505b73ff0000000000000000000000000000000000000473ffffffffffffffffffffffffffffffffffffffff166378423bcf8383866040518463ffffffff1660e01b815260040161146e939291906121b6565b600060405180830381600087803b15801561148857600080fd5b505af115801561149c573d6000803e3d6000fd5b505050508373ffffffffffffffffffffffffffffffffffffffff168573ffffffffffffffffffffffffffffffffffffffff167fddf252ad1be2c89b69c2b068fc378daa952ba7f163c4a11628f55a4df523b3ef856040516114fd9190611a62565b60405180910390a35050505050565b600073ffffffffffffffffffffffffffffffffffffffff168273ffffffffffffffffffffffffffffffffffffffff160361157b576040517f08c379a0000000000000000000000000000000000000000000000000000000008152600401611572906126b5565b60405180910390fd5b67ffffffffffffffff80168111156115c8576040517f08c379a00000000000000000000000000000000000000000000000000000000081526004016115bf90612747565b60405180910390fd5b60006115d3836117c1565b90508173ff0000000000000000000000000000000000000473ffffffffffffffffffffffffffffffffffffffff1663d1de5011836040518263ffffffff1660e01b81526004016116239190611c79565b60e060405180830381865afa158015611640573d6000803e3d6000fd5b505050506040513d601f19601f820116820180604052508101906116649190612189565b6040015167ffffffffffffffff1610156116b3576040517f08c379a00000000000000000000000000000000000000000000000000000000081526004016116aa906127d9565b60405180910390fd5b73ff0000000000000000000000000000000000000473ffffffffffffffffffffffffffffffffffffffff1663c067eebb7f000000000000000000000000000000000000000000000000000000000000000083856040518463ffffffff1660e01b8152600401611724939291906121b6565b600060405180830381600087803b15801561173e57600080fd5b505af1158015611752573d6000803e3d6000fd5b50505050600073ffffffffffffffffffffffffffffffffffffffff168373ffffffffffffffffffffffffffffffffffffffff167fddf252ad1be2c89b69c2b068fc378daa952ba7f163c4a11628f55a4df523b3ef846040516117b49190611a62565b60405180910390a3505050565b600073ff0000000000000000000000000000000000000473ffffffffffffffffffffffffffffffffffffffff1663eb7da78c6117fc84611860565b6040518263ffffffff1660e01b81526004016118189190611c79565b602060405180830381865afa158015611835573d6000803e3d6000fd5b505050506040513d601f19601f820116820180604052508101906118599190611fd9565b9050919050565b60008173ffffffffffffffffffffffffffffffffffffffff1660001b9050919050565b600081519050919050565b600082825260208201905092915050565b60005b838110156118bd5780820151818401526020810190506118a2565b60008484015250505050565b6000601f19601f8301169050919050565b60006118e582611883565b6118ef818561188e565b93506118ff81856020860161189f565b611908816118c9565b840191505092915050565b6000602082019050818103600083015261192d81846118da565b905092915050565b6000604051905090565b600080fd5b600080fd5b600073ffffffffffffffffffffffffffffffffffffffff82169050919050565b600061197482611949565b9050919050565b61198481611969565b811461198f57600080fd5b50565b6000813590506119a18161197b565b92915050565b6000819050919050565b6119ba816119a7565b81146119c557600080fd5b50565b6000813590506119d7816119b1565b92915050565b600080604083850312156119f4576119f361193f565b5b6000611a0285828601611992565b9250506020611a13858286016119c8565b9150509250929050565b60008115159050919050565b611a3281611a1d565b82525050565b6000602082019050611a4d6000830184611a29565b92915050565b611a5c816119a7565b82525050565b6000602082019050611a776000830184611a53565b92915050565b600080600060608486031215611a9657611a9561193f565b5b6000611aa486828701611992565b9350506020611ab586828701611992565b9250506040611ac6868287016119c8565b9150509250925092565b600060ff82169050919050565b611ae681611ad0565b82525050565b6000602082019050611b016000830184611add565b92915050565b600060208284031215611b1d57611b1c61193f565b5b6000611b2b848285016119c8565b91505092915050565b6000819050919050565b611b4781611b34565b8114611b5257600080fd5b50565b600081359050611b6481611b3e565b92915050565b600067ffffffffffffffff82169050919050565b611b8781611b6a565b8114611b9257600080fd5b50565b600081359050611ba481611b7e565b92915050565b60008060408385031215611bc157611bc061193f565b5b6000611bcf85828601611b55565b9250506020611be085828601611b95565b9150509250929050565b600080600060608486031215611c0357611c0261193f565b5b6000611c1186828701611b55565b9350506020611c2286828701611992565b9250506040611c3386828701611b95565b9150509250925092565b600060208284031215611c5357611c5261193f565b5b6000611c6184828501611992565b91505092915050565b611c7381611b34565b82525050565b6000602082019050611c8e6000830184611c6a565b92915050565b60008060408385031215611cab57611caa61193f565b5b6000611cb985828601611992565b9250506020611cca85828601611992565b9150509250929050565b600080fd5b600080fd5b7f4e487b7100000000000000000000000000000000000000000000000000000000600052604160045260246000fd5b611d16826118c9565b810181811067ffffffffffffffff82111715611d3557611d34611cde565b5b80604052505050565b6000611d48611935565b9050611d548282611d0d565b919050565b600067ffffffffffffffff821115611d7457611d73611cde565b5b611d7d826118c9565b9050602081019050919050565b6000611d9d611d9884611d59565b611d3e565b905082815260208101848484011115611db957611db8611cd9565b5b611dc484828561189f565b509392505050565b600082601f830112611de157611de0611cd4565b5b8151611df1848260208601611d8a565b91505092915050565b600060208284031215611e1057611e0f61193f565b5b600082015167ffffffffffffffff811115611e2e57611e2d611944565b5b611e3a84828501611dcc565b91505092915050565b600080fd5b600081519050611e5781611b7e565b92915050565b611e6681611ad0565b8114611e7157600080fd5b50565b600081519050611e8381611e5d565b92915050565b611e9281611a1d565b8114611e9d57600080fd5b50565b600081519050611eaf81611e89565b92915050565b600081519050611ec481611b3e565b92915050565b600060a08284031215611ee057611edf611e43565b5b611eea60a0611d3e565b90506000611efa84828501611e48565b6000830152506020611f0e84828501611e74565b6020830152506040611f2284828501611ea0565b6040830152506060611f3684828501611eb5565b6060830152506080611f4a84828501611eb5565b60808301525092915050565b600060a08284031215611f6c57611f6b61193f565b5b6000611f7a84828501611eca565b91505092915050565b600060208284031215611f9957611f9861193f565b5b6000611fa784828501611ea0565b91505092915050565b6000604082019050611fc56000830185611c6a565b611fd26020830184611c6a565b9392505050565b600060208284031215611fef57611fee61193f565b5b6000611ffd84828501611eb5565b91505092915050565b61200f81611b6a565b82525050565b600060808201905061202a6000830187611c6a565b6120376020830186611c6a565b6120446040830185611c6a565b6120516060830184612006565b95945050505050565b6000819050919050565b600061207f61207a61207584611b6a565b61205a565b6119a7565b9050919050565b61208f81612064565b82525050565b60006020820190506120aa6000830184612086565b92915050565b600381106120bd57600080fd5b50565b6000815190506120cf816120b0565b92915050565b600060e082840312156120eb576120ea611e43565b5b6120f560e0611d3e565b9050600061210584828501611eb5565b600083015250602061211984828501611eb5565b602083015250604061212d84828501611e48565b604083015250606061214184828501611eb5565b606083015250608061215584828501611e48565b60808301525060a061216984828501611eb5565b60a08301525060c061217d848285016120c0565b60c08301525092915050565b600060e0828403121561219f5761219e61193f565b5b60006121ad848285016120d5565b91505092915050565b60006060820190506121cb6000830186611c6a565b6121d86020830185611c6a565b6121e56040830184612006565b949350505050565b60006020820190506122026000830184612006565b92915050565b7f45524332303a20617070726f76652066726f6d20746865207a65726f2061646460008201527f7265737300000000000000000000000000000000000000000000000000000000602082015250565b600061226460248361188e565b915061226f82612208565b604082019050919050565b6000602082019050818103600083015261229381612257565b9050919050565b7f45524332303a20617070726f766520746f20746865207a65726f20616464726560008201527f7373000000000000000000000000000000000000000000000000000000000000602082015250565b60006122f660228361188e565b91506123018261229a565b604082019050919050565b60006020820190508181036000830152612325816122e9565b9050919050565b7f45524332303a20696e73756666696369656e7420616c6c6f77616e6365000000600082015250565b6000612362601d8361188e565b915061236d8261232c565b602082019050919050565b6000602082019050818103600083015261239181612355565b9050919050565b7f4e487b7100000000000000000000000000000000000000000000000000000000600052601160045260246000fd5b60006123d2826119a7565b91506123dd836119a7565b92508282039050818111156123f5576123f4612398565b5b92915050565b7f45524332303a207472616e736665722066726f6d20746865207a65726f20616460008201527f6472657373000000000000000000000000000000000000000000000000000000602082015250565b600061245760258361188e565b9150612462826123fb565b604082019050919050565b600060208201905081810360008301526124868161244a565b9050919050565b7f45524332303a207472616e7366657220746f20746865207a65726f206164647260008201527f6573730000000000000000000000000000000000000000000000000000000000602082015250565b60006124e960238361188e565b91506124f48261248d565b604082019050919050565b60006020820190508181036000830152612518816124dc565b9050919050565b7f45524332303a207472616e7366657220616d6f756e742065786365656473207560008201527f696e743634206d61780000000000000000000000000000000000000000000000602082015250565b600061257b60298361188e565b91506125868261251f565b604082019050919050565b600060208201905081810360008301526125aa8161256e565b9050919050565b7f45524332303a207472616e7366657220616d6f756e742065786365656473206260008201527f616c616e63650000000000000000000000000000000000000000000000000000602082015250565b600061260d60268361188e565b9150612618826125b1565b604082019050919050565b6000602082019050818103600083015261263c81612600565b9050919050565b7f45524332303a206275726e2066726f6d20746865207a65726f2061646472657360008201527f7300000000000000000000000000000000000000000000000000000000000000602082015250565b600061269f60218361188e565b91506126aa82612643565b604082019050919050565b600060208201905081810360008301526126ce81612692565b9050919050565b7f45524332303a206275726e20616d6f756e7420657863656564732075696e743660008201527f34206d6178000000000000000000000000000000000000000000000000000000602082015250565b600061273160258361188e565b915061273c826126d5565b604082019050919050565b6000602082019050818103600083015261276081612724565b9050919050565b7f45524332303a206275726e20616d6f756e7420657863656564732062616c616e60008201527f6365000000000000000000000000000000000000000000000000000000000000602082015250565b60006127c360228361188e565b91506127ce82612767565b604082019050919050565b600060208201905081810360008301526127f2816127b6565b905091905056fea26469706673582212207e4d2446e7a7836ad3a5955a10306015316397850908a4252c66bb62e046714564736f6c634300081c0033",
  "linkReferences": {},
  "deployedLinkReferences": {}
}