{
  "_format": "hh-sol-artifact-1",
  "contractName": "TestNeonOracleToken",
  "sourceName": "contracts/TestNeonOracleToken.sol",
  "abi": [
    {
      "inputs": [
        {
          "internalType": "address",
          "name": "_token",
          "type": "address"
        }
      ],
      "stateMutability": "nonpayable",
      "type": "constructor"
    },
    {
      "inputs": [],
      "name": "ASSOCIATED_TOKEN_PROGRAM",
      "outputs": [
        {
          "internalType": "bytes32",
          "name": "",
          "type": "bytes32"
        }
      ],
      "stateMutability": "view",
      "type": "function"
    },
    {
      "inputs": [],
      "name": "CALL_SOLANA",
      "outputs": [
        {
          "internalType": "contract ICallSolana",
          "name": "",
          "type": "address"
        }
      ],
      "stateMutability": "view",
      "type": "function"
    },
    {
      "inputs": [],
      "name": "TOKEN_PROGRAM",
      "outputs": [
        {
          "internalType": "bytes32",
          "name": "",
          "type": "bytes32"
        }
      ],
      "stateMutability": "view",
      "type": "function"
    },
    {
      "inputs": [
        {
          "internalType": "bytes32",
          "name": "owner",
          "type": "bytes32"
        },
        {
          "internalType": "bytes32",
          "name": "programId",
          "type": "bytes32"
        },
        {
          "internalType": "bytes32",
          "name": "mint",
          "type": "bytes32"
        }
      ],
      "name": "getAssociateTokenAccount",
      "outputs": [
        {
          "internalType": "bytes32",
          "name": "",
          "type": "bytes32"
        }
      ],
      "stateMutability": "view",
      "type": "function"
    },
    {
      "inputs": [
        {
          "internalType": "address",
          "name": "evm_address",
          "type": "address"
        }
      ],
      "name": "getNeonAddress",
      "outputs": [
        {
          "internalType": "bytes32",
          "name": "",
          "type": "bytes32"
        }
      ],
      "stateMutability": "view",
      "type": "function"
    },
    {
      "inputs": [],
      "name": "token",
      "outputs": [
        {
          "internalType": "address",
          "name": "",
          "type": "address"
        }
      ],
      "stateMutability": "view",
      "type": "function"
    },
    {
      "inputs": [
        {
          "internalType": "uint64",
          "name": "amount",
          "type": "uint64"
        },
        {
          "internalType": "bytes32",
          "name": "receiver",
          "type": "bytes32"
        }
      ],
      "name": "transfer",
      "outputs": [],
      "stateMutability": "nonpayable",
      "type": "function"
    }
  ],
  "bytecode": "0x60a060405234801561001057600080fd5b5060405161162a38038061162a833981810160405281019061003291906100cf565b8073ffffffffffffffffffffffffffffffffffffffff1660808173ffffffffffffffffffffffffffffffffffffffff1681525050506100fc565b600080fd5b600073ffffffffffffffffffffffffffffffffffffffff82169050919050565b600061009c82610071565b9050919050565b6100ac81610091565b81146100b757600080fd5b50565b6000815190506100c9816100a3565b92915050565b6000602082840312156100e5576100e461006c565b5b60006100f3848285016100ba565b91505092915050565b6080516114fe61012c600039600081816102c301528181610445015281816104d401526107d401526114fe6000f3fe608060405234801561001057600080fd5b506004361061007c5760003560e01c80633ae0ac961161005b5780633ae0ac96146100ed57806374ee1fb51461010b578063a295226014610127578063fc0c546a146101575761007c565b8062b8d84914610081578063154d4aa51461009f578063161a6e3c146100cf575b600080fd5b610089610175565b6040516100969190610d16565b60405180910390f35b6100b960048036038101906100b49190610d83565b61018d565b6040516100c69190610dc9565b60405180910390f35b6100d7610224565b6040516100e49190610dc9565b60405180910390f35b6100f561024b565b6040516101029190610dc9565b60405180910390f35b61012560048036038101906101209190610e50565b610272565b005b610141600480360381019061013c9190610e90565b6106f1565b60405161014e9190610dc9565b60405180910390f35b61015f6107d2565b60405161016c9190610ef2565b60405180910390f35b73ff0000000000000000000000000000000000000681565b600073ff0000000000000000000000000000000000000673ffffffffffffffffffffffffffffffffffffffff1663154d4aa5836040518263ffffffff1660e01b81526004016101dc9190610ef2565b602060405180830381865afa1580156101f9573d6000803e3d6000fd5b505050506040513d601f19601f8201168201806040525081019061021d9190610f22565b9050919050565b7f8c97258f4e2489f1bb3d1029148e0d830b5a1399daff1084048e7bd8dbe9f85960001b81565b7f06ddf6e1d765a193d9cbe146ceeb79ac1cb485ed5f5b37913a8cf5857eff00a960001b81565b60008267ffffffffffffffff16116102bf576040517f08c379a00000000000000000000000000000000000000000000000000000000081526004016102b690610fac565b60405180910390fd5b60007f000000000000000000000000000000000000000000000000000000000000000073ffffffffffffffffffffffffffffffffffffffff1663af25c0776040518163ffffffff1660e01b8152600401602060405180830381865afa15801561032c573d6000803e3d6000fd5b505050506040513d601f19601f820116820180604052508101906103509190610f22565b9050600061040f73ff0000000000000000000000000000000000000673ffffffffffffffffffffffffffffffffffffffff1663154d4aa5306040518263ffffffff1660e01b81526004016103a49190610ef2565b602060405180830381865afa1580156103c1573d6000803e3d6000fd5b505050506040513d601f19601f820116820180604052508101906103e59190610f22565b7f06ddf6e1d765a193d9cbe146ceeb79ac1cb485ed5f5b37913a8cf5857eff00a960001b846106f1565b90506000610441847f06ddf6e1d765a193d9cbe146ceeb79ac1cb485ed5f5b37913a8cf5857eff00a960001b856106f1565b90507f000000000000000000000000000000000000000000000000000000000000000073ffffffffffffffffffffffffffffffffffffffff166323b872dd3330886040518463ffffffff1660e01b81526004016104a093929190611007565b600060405180830381600087803b1580156104ba57600080fd5b505af11580156104ce573d6000803e3d6000fd5b505050507f000000000000000000000000000000000000000000000000000000000000000073ffffffffffffffffffffffffffffffffffffffff1663af554c5b83876040518363ffffffff1660e01b815260040161052d92919061104d565b6020604051808303816000875af115801561054c573d6000803e3d6000fd5b505050506040513d601f19601f8201168201806040525081019061057091906110ae565b50600080600080610610868673ff0000000000000000000000000000000000000673ffffffffffffffffffffffffffffffffffffffff1663154d4aa5306040518263ffffffff1660e01b81526004016105c99190610ef2565b602060405180830381865afa1580156105e6573d6000803e3d6000fd5b505050506040513d601f19601f8201168201806040525081019061060a9190610f22565b8c6107f6565b9350935093509350600061064a7f06ddf6e1d765a193d9cbe146ceeb79ac1cb485ed5f5b37913a8cf5857eff00a960001b86868686610a81565b905073ff0000000000000000000000000000000000000673ffffffffffffffffffffffffffffffffffffffff1663c549a7af6000836040518363ffffffff1660e01b815260040161069c9291906111a6565b6000604051808303816000875af11580156106bb573d6000803e3d6000fd5b505050506040513d6000823e3d601f19601f820116820180604052508101906106e491906112fc565b5050505050505050505050565b600073ff0000000000000000000000000000000000000673ffffffffffffffffffffffffffffffffffffffff16634a890f317f8c97258f4e2489f1bb3d1029148e0d830b5a1399daff1084048e7bd8dbe9f85960001b86868660405160200161075c93929190611366565b6040516020818303038152906040526040518363ffffffff1660e01b81526004016107889291906113a3565b602060405180830381865afa1580156107a5573d6000803e3d6000fd5b505050506040513d601f19601f820116820180604052508101906107c99190610f22565b90509392505050565b7f000000000000000000000000000000000000000000000000000000000000000081565b606080606080600367ffffffffffffffff811115610817576108166111e0565b5b6040519080825280602002602001820160405280156108455781602001602082028036833780820191505090505b509350878460008151811061085d5761085c6113d3565b5b602002602001018181525050868460018151811061087e5761087d6113d3565b5b602002602001018181525050858460028151811061089f5761089e6113d3565b5b602002602001018181525050600367ffffffffffffffff8111156108c6576108c56111e0565b5b6040519080825280602002602001820160405280156108f45781602001602082028036833780820191505090505b50925060008360008151811061090d5761090c6113d3565b5b602002602001019015159081151581525050600083600181518110610935576109346113d3565b5b60200260200101901515908115158152505060018360028151811061095d5761095c6113d3565b5b602002602001019015159081151581525050600367ffffffffffffffff81111561098a576109896111e0565b5b6040519080825280602002602001820160405280156109b85781602001602082028036833780820191505090505b5091506001826000815181106109d1576109d06113d3565b5b6020026020010190151590811515815250506001826001815181106109f9576109f86113d3565b5b602002602001019015159081151581525050600082600281518110610a2157610a206113d3565b5b6020026020010190151590811515815250506000610a488667ffffffffffffffff16610b4e565b60001b9050600360f81b81604051602001610a6492919061149c565b604051602081830303815290604052915050945094509450949050565b606080604051905085518351602282026008016020016000821115610aa95781600801810190505b602081018401604052808452602084018a815260208101905083815360088101905060005b84811015610b075760208102602001808c01518352808b01516020840153808a0151602184015360228301925050600181019050610ace565b506000831115610b3d5782815360088101905060005b83811015610b3b578060200188015181830152602081019050610b1d565b505b505050508091505095945050505050565b600060087eff00ff00ff00ff00ff00ff00ff00ff00ff00ff00ff00ff00ff00ff00ff00ff8316901b60087fff00ff00ff00ff00ff00ff00ff00ff00ff00ff00ff00ff00ff00ff00ff00ff008416901c17915060107dffff0000ffff0000ffff0000ffff0000ffff0000ffff0000ffff0000ffff8316901b60107fffff0000ffff0000ffff0000ffff0000ffff0000ffff0000ffff0000ffff00008416901c17915060207bffffffff00000000ffffffff00000000ffffffff00000000ffffffff8316901b60207fffffffff00000000ffffffff00000000ffffffff00000000ffffffff000000008416901c179150604077ffffffffffffffff0000000000000000ffffffffffffffff8316901b60407fffffffffffffffff0000000000000000ffffffffffffffff00000000000000008416901c179150608082901b608083901c179050919050565b600073ffffffffffffffffffffffffffffffffffffffff82169050919050565b6000819050919050565b6000610cdc610cd7610cd284610c97565b610cb7565b610c97565b9050919050565b6000610cee82610cc1565b9050919050565b6000610d0082610ce3565b9050919050565b610d1081610cf5565b82525050565b6000602082019050610d2b6000830184610d07565b92915050565b6000604051905090565b600080fd5b600080fd5b6000610d5082610c97565b9050919050565b610d6081610d45565b8114610d6b57600080fd5b50565b600081359050610d7d81610d57565b92915050565b600060208284031215610d9957610d98610d3b565b5b6000610da784828501610d6e565b91505092915050565b6000819050919050565b610dc381610db0565b82525050565b6000602082019050610dde6000830184610dba565b92915050565b600067ffffffffffffffff82169050919050565b610e0181610de4565b8114610e0c57600080fd5b50565b600081359050610e1e81610df8565b92915050565b610e2d81610db0565b8114610e3857600080fd5b50565b600081359050610e4a81610e24565b92915050565b60008060408385031215610e6757610e66610d3b565b5b6000610e7585828601610e0f565b9250506020610e8685828601610e3b565b9150509250929050565b600080600060608486031215610ea957610ea8610d3b565b5b6000610eb786828701610e3b565b9350506020610ec886828701610e3b565b9250506040610ed986828701610e3b565b9150509250925092565b610eec81610d45565b82525050565b6000602082019050610f076000830184610ee3565b92915050565b600081519050610f1c81610e24565b92915050565b600060208284031215610f3857610f37610d3b565b5b6000610f4684828501610f0d565b91505092915050565b600082825260208201905092915050565b7f4552524f523a20494e56414c494420414d4f554e540000000000000000000000600082015250565b6000610f96601583610f4f565b9150610fa182610f60565b602082019050919050565b60006020820190508181036000830152610fc581610f89565b9050919050565b6000819050919050565b6000610ff1610fec610fe784610de4565b610cb7565b610fcc565b9050919050565b61100181610fd6565b82525050565b600060608201905061101c6000830186610ee3565b6110296020830185610ee3565b6110366040830184610ff8565b949350505050565b61104781610de4565b82525050565b60006040820190506110626000830185610dba565b61106f602083018461103e565b9392505050565b60008115159050919050565b61108b81611076565b811461109657600080fd5b50565b6000815190506110a881611082565b92915050565b6000602082840312156110c4576110c3610d3b565b5b60006110d284828501611099565b91505092915050565b6000819050919050565b60006111006110fb6110f6846110db565b610cb7565b610de4565b9050919050565b611110816110e5565b82525050565b600081519050919050565b600082825260208201905092915050565b60005b83811015611150578082015181840152602081019050611135565b60008484015250505050565b6000601f19601f8301169050919050565b600061117882611116565b6111828185611121565b9350611192818560208601611132565b61119b8161115c565b840191505092915050565b60006040820190506111bb6000830185611107565b81810360208301526111cd818461116d565b90509392505050565b600080fd5b600080fd5b7f4e487b7100000000000000000000000000000000000000000000000000000000600052604160045260246000fd5b6112188261115c565b810181811067ffffffffffffffff82111715611237576112366111e0565b5b80604052505050565b600061124a610d31565b9050611256828261120f565b919050565b600067ffffffffffffffff821115611276576112756111e0565b5b61127f8261115c565b9050602081019050919050565b600061129f61129a8461125b565b611240565b9050828152602081018484840111156112bb576112ba6111db565b5b6112c6848285611132565b509392505050565b600082601f8301126112e3576112e26111d6565b5b81516112f384826020860161128c565b91505092915050565b60006020828403121561131257611311610d3b565b5b600082015167ffffffffffffffff8111156113305761132f610d40565b5b61133c848285016112ce565b91505092915050565b6000819050919050565b61136061135b82610db0565b611345565b82525050565b6000611372828661134f565b602082019150611382828561134f565b602082019150611392828461134f565b602082019150819050949350505050565b60006040820190506113b86000830185610dba565b81810360208301526113ca818461116d565b90509392505050565b7f4e487b7100000000000000000000000000000000000000000000000000000000600052603260045260246000fd5b60007fff0000000000000000000000000000000000000000000000000000000000000082169050919050565b6000819050919050565b61144961144482611402565b61142e565b82525050565b60007fffffffffffffffff00000000000000000000000000000000000000000000000082169050919050565b6000819050919050565b6114966114918261144f565b61147b565b82525050565b60006114a88285611438565b6001820191506114b88284611485565b600882019150819050939250505056fea26469706673582212201d262b65f16de7e037e2a7ca7953b14accfd20ac9bd604893fd60ed5bc893da764736f6c634300081c0033",
  "linkReferences": {},
  "deployedLinkReferences": {}
}